{
  "address": "0x286b2Ef4C9cB35B44a6550AA41Ed2aC8e25621E3",
  "abi": [
    {
      "inputs": [],
      "stateMutability": "nonpayable",
      "type": "constructor"
    },
    {
      "anonymous": false,
      "inputs": [
        {
          "indexed": true,
          "internalType": "address",
          "name": "account",
          "type": "address"
        },
        {
          "indexed": true,
          "internalType": "address",
          "name": "operator",
          "type": "address"
        },
        {
          "indexed": false,
          "internalType": "bool",
          "name": "approved",
          "type": "bool"
        }
      ],
      "name": "ApprovalForAll",
      "type": "event"
    },
    {
      "anonymous": false,
      "inputs": [
        {
          "indexed": true,
          "internalType": "address",
          "name": "buyer",
          "type": "address"
        },
        {
          "indexed": false,
          "internalType": "address",
          "name": "token",
          "type": "address"
        },
        {
          "indexed": false,
          "internalType": "uint256",
          "name": "investmentAmount",
          "type": "uint256"
        },
        {
          "indexed": false,
          "internalType": "uint256",
          "name": "tokensBought",
          "type": "uint256"
        }
      ],
      "name": "DankBankBuy",
      "type": "event"
    },
    {
      "anonymous": false,
      "inputs": [
        {
          "indexed": true,
          "internalType": "address",
          "name": "seller",
          "type": "address"
        },
        {
          "indexed": false,
          "internalType": "address",
          "name": "token",
          "type": "address"
        },
        {
          "indexed": false,
          "internalType": "uint256",
          "name": "returnAmount",
          "type": "uint256"
        },
        {
          "indexed": false,
          "internalType": "uint256",
          "name": "tokensSold",
          "type": "uint256"
        }
      ],
      "name": "DankBankSell",
      "type": "event"
    },
    {
      "anonymous": false,
      "inputs": [
        {
          "indexed": true,
          "internalType": "address",
          "name": "funder",
          "type": "address"
        },
        {
          "indexed": false,
          "internalType": "address",
          "name": "token",
          "type": "address"
        },
        {
          "indexed": false,
          "internalType": "uint256",
          "name": "amountAdded",
          "type": "uint256"
        },
        {
          "indexed": false,
          "internalType": "uint256",
          "name": "sharesMinted",
          "type": "uint256"
        }
      ],
      "name": "LiquidityAdded",
      "type": "event"
    },
    {
      "anonymous": false,
      "inputs": [
        {
          "indexed": true,
          "internalType": "address",
          "name": "funder",
          "type": "address"
        },
        {
          "indexed": false,
          "internalType": "address",
          "name": "token",
          "type": "address"
        },
        {
          "indexed": false,
          "internalType": "uint256",
          "name": "tokensRemoved",
          "type": "uint256"
        },
        {
          "indexed": false,
          "internalType": "uint256",
          "name": "ethRemoved",
          "type": "uint256"
        },
        {
          "indexed": false,
          "internalType": "uint256",
          "name": "sharesBurnt",
          "type": "uint256"
        }
      ],
      "name": "LiquidityRemoved",
      "type": "event"
    },
    {
      "anonymous": false,
      "inputs": [
        {
          "indexed": true,
          "internalType": "address",
          "name": "operator",
          "type": "address"
        },
        {
          "indexed": true,
          "internalType": "address",
          "name": "from",
          "type": "address"
        },
        {
          "indexed": true,
          "internalType": "address",
          "name": "to",
          "type": "address"
        },
        {
          "indexed": false,
          "internalType": "uint256[]",
          "name": "ids",
          "type": "uint256[]"
        },
        {
          "indexed": false,
          "internalType": "uint256[]",
          "name": "values",
          "type": "uint256[]"
        }
      ],
      "name": "TransferBatch",
      "type": "event"
    },
    {
      "anonymous": false,
      "inputs": [
        {
          "indexed": true,
          "internalType": "address",
          "name": "operator",
          "type": "address"
        },
        {
          "indexed": true,
          "internalType": "address",
          "name": "from",
          "type": "address"
        },
        {
          "indexed": true,
          "internalType": "address",
          "name": "to",
          "type": "address"
        },
        {
          "indexed": false,
          "internalType": "uint256",
          "name": "id",
          "type": "uint256"
        },
        {
          "indexed": false,
          "internalType": "uint256",
          "name": "value",
          "type": "uint256"
        }
      ],
      "name": "TransferSingle",
      "type": "event"
    },
    {
      "anonymous": false,
      "inputs": [
        {
          "indexed": false,
          "internalType": "string",
          "name": "value",
          "type": "string"
        },
        {
          "indexed": true,
          "internalType": "uint256",
          "name": "id",
          "type": "uint256"
        }
      ],
      "name": "URI",
      "type": "event"
    },
    {
      "inputs": [],
      "name": "FEE_MULTIPLIER",
      "outputs": [
        {
          "internalType": "uint256",
          "name": "",
          "type": "uint256"
        }
      ],
      "stateMutability": "view",
      "type": "function"
    },
    {
      "inputs": [],
      "name": "MULTIPLIER_SUB_ONE",
      "outputs": [
        {
          "internalType": "uint256",
          "name": "",
          "type": "uint256"
        }
      ],
      "stateMutability": "view",
      "type": "function"
    },
    {
      "inputs": [
        {
          "internalType": "uint256",
          "name": "",
          "type": "uint256"
        }
      ],
      "name": "_tokenSupplies",
      "outputs": [
        {
          "internalType": "uint256",
          "name": "",
          "type": "uint256"
        }
      ],
      "stateMutability": "view",
      "type": "function"
    },
    {
      "inputs": [
        {
          "internalType": "address",
          "name": "token",
          "type": "address"
        },
        {
          "internalType": "uint256",
          "name": "inputAmount",
          "type": "uint256"
        },
        {
          "internalType": "uint256",
          "name": "minEthAdded",
          "type": "uint256"
        }
      ],
      "name": "addLiquidity",
      "outputs": [],
      "stateMutability": "payable",
      "type": "function"
    },
    {
      "inputs": [
        {
          "internalType": "address",
          "name": "account",
          "type": "address"
        },
        {
          "internalType": "uint256",
          "name": "id",
          "type": "uint256"
        }
      ],
      "name": "balanceOf",
      "outputs": [
        {
          "internalType": "uint256",
          "name": "",
          "type": "uint256"
        }
      ],
      "stateMutability": "view",
      "type": "function"
    },
    {
      "inputs": [
        {
          "internalType": "address[]",
          "name": "accounts",
          "type": "address[]"
        },
        {
          "internalType": "uint256[]",
          "name": "ids",
          "type": "uint256[]"
        }
      ],
      "name": "balanceOfBatch",
      "outputs": [
        {
          "internalType": "uint256[]",
          "name": "",
          "type": "uint256[]"
        }
      ],
      "stateMutability": "view",
      "type": "function"
    },
    {
      "inputs": [
        {
          "internalType": "address",
          "name": "token",
          "type": "address"
        },
        {
          "internalType": "uint256",
          "name": "minTokensOut",
          "type": "uint256"
        }
      ],
      "name": "buy",
      "outputs": [],
      "stateMutability": "payable",
      "type": "function"
    },
    {
      "inputs": [
        {
          "internalType": "address",
          "name": "token",
          "type": "address"
        },
        {
          "internalType": "uint256",
          "name": "ethIn",
          "type": "uint256"
        }
      ],
      "name": "calculateBuyTokensOut",
      "outputs": [
        {
          "internalType": "uint256",
          "name": "tokensOut",
          "type": "uint256"
        }
      ],
      "stateMutability": "view",
      "type": "function"
    },
    {
      "inputs": [
        {
          "internalType": "address",
          "name": "token",
          "type": "address"
        },
        {
          "internalType": "uint256",
          "name": "tokensIn",
          "type": "uint256"
        }
      ],
      "name": "calculateSellEthOut",
      "outputs": [
        {
          "internalType": "uint256",
          "name": "ethOut",
          "type": "uint256"
        }
      ],
      "stateMutability": "view",
      "type": "function"
    },
    {
      "inputs": [
        {
          "internalType": "address",
          "name": "",
          "type": "address"
        }
      ],
      "name": "ethPoolSupply",
      "outputs": [
        {
          "internalType": "uint256",
          "name": "",
          "type": "uint256"
        }
      ],
      "stateMutability": "view",
      "type": "function"
    },
    {
      "inputs": [
        {
          "internalType": "address",
          "name": "token",
          "type": "address"
        }
      ],
      "name": "getTokenId",
      "outputs": [
        {
          "internalType": "uint256",
          "name": "",
          "type": "uint256"
        }
      ],
      "stateMutability": "pure",
      "type": "function"
    },
    {
      "inputs": [
        {
          "internalType": "address",
          "name": "token",
          "type": "address"
        }
      ],
      "name": "getTotalEthPoolSupply",
      "outputs": [
        {
          "internalType": "uint256",
          "name": "",
          "type": "uint256"
        }
      ],
      "stateMutability": "view",
      "type": "function"
    },
    {
      "inputs": [
        {
          "internalType": "string",
          "name": "uri",
          "type": "string"
        }
      ],
      "name": "init",
      "outputs": [],
      "stateMutability": "nonpayable",
      "type": "function"
    },
    {
      "inputs": [
        {
          "internalType": "address",
          "name": "token",
          "type": "address"
        },
        {
          "internalType": "uint256",
          "name": "inputAmount",
          "type": "uint256"
        },
        {
          "internalType": "uint256",
          "name": "initVirtualEthSupply",
          "type": "uint256"
        }
      ],
      "name": "initPool",
      "outputs": [],
      "stateMutability": "payable",
      "type": "function"
    },
    {
      "inputs": [
        {
          "internalType": "address",
          "name": "account",
          "type": "address"
        },
        {
          "internalType": "address",
          "name": "operator",
          "type": "address"
        }
      ],
      "name": "isApprovedForAll",
      "outputs": [
        {
          "internalType": "bool",
          "name": "",
          "type": "bool"
        }
      ],
      "stateMutability": "view",
      "type": "function"
    },
    {
      "inputs": [
        {
          "internalType": "uint256",
          "name": "tokenId",
          "type": "uint256"
        }
      ],
      "name": "lpTokenSupply",
      "outputs": [
        {
          "internalType": "uint256",
          "name": "",
          "type": "uint256"
        }
      ],
      "stateMutability": "view",
      "type": "function"
    },
    {
      "inputs": [
        {
          "internalType": "address",
          "name": "token",
          "type": "address"
        },
        {
          "internalType": "uint256",
          "name": "burnAmount",
          "type": "uint256"
        },
        {
          "internalType": "uint256",
          "name": "minTokens",
          "type": "uint256"
        },
        {
          "internalType": "uint256",
          "name": "minEth",
          "type": "uint256"
        }
      ],
      "name": "removeLiquidity",
      "outputs": [],
      "stateMutability": "nonpayable",
      "type": "function"
    },
    {
      "inputs": [
        {
          "internalType": "address",
          "name": "from",
          "type": "address"
        },
        {
          "internalType": "address",
          "name": "to",
          "type": "address"
        },
        {
          "internalType": "uint256[]",
          "name": "ids",
          "type": "uint256[]"
        },
        {
          "internalType": "uint256[]",
          "name": "amounts",
          "type": "uint256[]"
        },
        {
          "internalType": "bytes",
          "name": "data",
          "type": "bytes"
        }
      ],
      "name": "safeBatchTransferFrom",
      "outputs": [],
      "stateMutability": "nonpayable",
      "type": "function"
    },
    {
      "inputs": [
        {
          "internalType": "address",
          "name": "from",
          "type": "address"
        },
        {
          "internalType": "address",
          "name": "to",
          "type": "address"
        },
        {
          "internalType": "uint256",
          "name": "id",
          "type": "uint256"
        },
        {
          "internalType": "uint256",
          "name": "amount",
          "type": "uint256"
        },
        {
          "internalType": "bytes",
          "name": "data",
          "type": "bytes"
        }
      ],
      "name": "safeTransferFrom",
      "outputs": [],
      "stateMutability": "nonpayable",
      "type": "function"
    },
    {
      "inputs": [
        {
          "internalType": "address",
          "name": "token",
          "type": "address"
        },
        {
          "internalType": "uint256",
          "name": "tokensIn",
          "type": "uint256"
        },
        {
          "internalType": "uint256",
          "name": "minEthOut",
          "type": "uint256"
        }
      ],
      "name": "sell",
      "outputs": [],
      "stateMutability": "nonpayable",
      "type": "function"
    },
    {
      "inputs": [
        {
          "internalType": "address",
          "name": "operator",
          "type": "address"
        },
        {
          "internalType": "bool",
          "name": "approved",
          "type": "bool"
        }
      ],
      "name": "setApprovalForAll",
      "outputs": [],
      "stateMutability": "nonpayable",
      "type": "function"
    },
    {
      "inputs": [
        {
          "internalType": "bytes4",
          "name": "interfaceId",
          "type": "bytes4"
        }
      ],
      "name": "supportsInterface",
      "outputs": [
        {
          "internalType": "bool",
          "name": "",
          "type": "bool"
        }
      ],
      "stateMutability": "view",
      "type": "function"
    },
    {
      "inputs": [
        {
          "internalType": "uint256",
          "name": "",
          "type": "uint256"
        }
      ],
      "name": "uri",
      "outputs": [
        {
          "internalType": "string",
          "name": "",
          "type": "string"
        }
      ],
      "stateMutability": "view",
      "type": "function"
    },
    {
      "inputs": [
        {
          "internalType": "address",
          "name": "",
          "type": "address"
        }
      ],
      "name": "virtualEthPoolSupply",
      "outputs": [
        {
          "internalType": "uint256",
          "name": "",
          "type": "uint256"
        }
      ],
      "stateMutability": "view",
      "type": "function"
    }
  ],
  "transactionHash": "0x5977ac665bf2c058730e72684457195f8cf890e431fe1f31a89dc8ad1789940d",
  "args": [],
  "solcInputHash": "6c65fc5e52a8eb17b79af92c5a3aa580",
  "bytecode": "0x60806040523480156200001157600080fd5b50600254610100900460ff166200002f5760025460ff161562000039565b62000039620000f2565b620000915760405162461bcd60e51b815260206004820152602e60248201526000805160206200382f83398151915260448201526d191e481a5b9a5d1a585b1a5e995960921b60648201526084015b60405180910390fd5b600254610100900460ff16158015620000b4576002805461ffff19166101011790555b620000d86040518060600160405280603081526020016200384f6030913962000110565b8015620000eb576002805461ff00191690555b50620003ee565b60006200010a30620001e460201b62001b6a1760201c565b15905090565b600254610100900460ff166200012d5760025460ff161562000137565b62000137620000f2565b6200018b5760405162461bcd60e51b815260206004820152602e60248201526000805160206200382f83398151915260448201526d191e481a5b9a5d1a585b1a5e995960921b606482015260840162000088565b600254610100900460ff16158015620001ae576002805461ffff19166101011790555b620001b8620001ea565b620001c2620001ea565b620001cd8262000259565b8015620001e0576002805461ff00191690555b5050565b3b151590565b600254610100900460ff16620002575760405162461bcd60e51b815260206004820152602b60248201527f496e697469616c697a61626c653a20636f6e7472616374206973206e6f74206960448201526a6e697469616c697a696e6760a81b606482015260840162000088565b565b600254610100900460ff16620002765760025460ff161562000280565b62000280620000f2565b620002d45760405162461bcd60e51b815260206004820152602e60248201526000805160206200382f83398151915260448201526d191e481a5b9a5d1a585b1a5e995960921b606482015260840162000088565b600254610100900460ff16158015620002f7576002805461ffff19166101011790555b620001cd828051620001e09060699060208401908280546200031990620003b1565b90600052602060002090601f0160209004810192826200033d576000855562000388565b82601f106200035857805160ff191683800117855562000388565b8280016001018555821562000388579182015b82811115620003885782518255916020019190600101906200036b565b50620003969291506200039a565b5090565b5b808211156200039657600081556001016200039b565b600181811c90821680620003c657607f821691505b60208210811415620003e857634e487b7160e01b600052602260045260246000fd5b50919050565b61343180620003fe6000396000f3fe60806040526004361061018a5760003560e01c806382b1efc1116100d6578063cce7ec131161007f578063f153768611610059578063f15376861461048f578063f242432a146104b6578063f9fbdb9e146104d657600080fd5b8063cce7ec1314610406578063d315698814610419578063e985e9c51461044657600080fd5b8063a615e05a116100b0578063a615e05a146103b0578063b591b13c146103d0578063b6e7d665146103e657600080fd5b806382b1efc11461034357806393ca2f8a14610370578063a22cb4651461039057600080fd5b80634e1273f4116101385780636a272462116101125780636a272462146102ee57806375beb82c1461030e5780638108dd211461032357600080fd5b80634e1273f41461029b57806350eb2145146102c857806355776b77146102db57600080fd5b80630f991c38116101695780630f991c381461021f57806324eb07f51461024c5780632eb2c2d61461027957600080fd5b8062fdd58e1461018f57806301ffc9a7146101c25780630e89341c146101f2575b600080fd5b34801561019b57600080fd5b506101af6101aa366004612e5b565b6104f6565b6040519081526020015b60405180910390f35b3480156101ce57600080fd5b506101e26101dd366004612fd5565b6105a1565b60405190151581526020016101b9565b3480156101fe57600080fd5b5061021261020d36600461305b565b61063e565b6040516101b991906131db565b34801561022b57600080fd5b506101af61023a366004612cd0565b60006020819052908152604090205481565b34801561025857600080fd5b506101af610267366004612cd0565b60016020526000908152604090205481565b34801561028557600080fd5b50610299610294366004612d1c565b6106d2565b005b3480156102a757600080fd5b506102bb6102b6366004612eee565b610774565b6040516101b991906131a3565b6102996102d6366004612e84565b6108ea565b6102996102e9366004612e84565b610b2f565b3480156102fa57600080fd5b50610299610309366004612e84565b610fb0565b34801561031a57600080fd5b506101af611228565b34801561032f57600080fd5b506101af61033e366004612e5b565b611238565b34801561034f57600080fd5b506101af61035e36600461305b565b606a6020526000908152604090205481565b34801561037c57600080fd5b5061029961038b366004612eb6565b611327565b34801561039c57600080fd5b506102996103ab366004612e25565b6116e2565b3480156103bc57600080fd5b506101af6103cb366004612e5b565b6117cd565b3480156103dc57600080fd5b506101af6101f481565b3480156103f257600080fd5b506101af610401366004612cd0565b61186a565b610299610414366004612e5b565b611897565b34801561042557600080fd5b506101af61043436600461305b565b6000908152606a602052604090205490565b34801561045257600080fd5b506101e2610461366004612cea565b6001600160a01b03918216600090815260686020908152604080832093909416825291909152205460ff1690565b34801561049b57600080fd5b506101af6104aa366004612cd0565b6001600160a01b031690565b3480156104c257600080fd5b506102996104d1366004612dc2565b611a0c565b3480156104e257600080fd5b506102996104f136600461300d565b611aa7565b60006001600160a01b0383166105795760405162461bcd60e51b815260206004820152602b60248201527f455243313135353a2062616c616e636520717565727920666f7220746865207a60448201527f65726f206164647265737300000000000000000000000000000000000000000060648201526084015b60405180910390fd5b5060009081526067602090815260408083206001600160a01b03949094168352929052205490565b60006001600160e01b031982167fd9b67a2600000000000000000000000000000000000000000000000000000000148061060457506001600160e01b031982167f0e89341c00000000000000000000000000000000000000000000000000000000145b8061063857507f01ffc9a7000000000000000000000000000000000000000000000000000000006001600160e01b03198316145b92915050565b60606069805461064d906132ac565b80601f0160208091040260200160405190810160405280929190818152602001828054610679906132ac565b80156106c65780601f1061069b576101008083540402835291602001916106c6565b820191906000526020600020905b8154815290600101906020018083116106a957829003601f168201915b50505050509050919050565b6001600160a01b0385163314806106ee57506106ee8533610461565b6107605760405162461bcd60e51b815260206004820152603260248201527f455243313135353a207472616e736665722063616c6c6572206973206e6f742060448201527f6f776e6572206e6f7220617070726f76656400000000000000000000000000006064820152608401610570565b61076d8585858585611b70565b5050505050565b606081518351146107ed5760405162461bcd60e51b815260206004820152602960248201527f455243313135353a206163636f756e747320616e6420696473206c656e67746860448201527f206d69736d6174636800000000000000000000000000000000000000000000006064820152608401610570565b6000835167ffffffffffffffff81111561081757634e487b7160e01b600052604160045260246000fd5b604051908082528060200260200182016040528015610840578160200160208202803683370190505b50905060005b84518110156108e2576108a785828151811061087257634e487b7160e01b600052603260045260246000fd5b602002602001015185838151811061089a57634e487b7160e01b600052603260045260246000fd5b60200260200101516104f6565b8282815181106108c757634e487b7160e01b600052603260045260246000fd5b60209081029190910101526108db81613314565b9050610846565b509392505050565b6002609a54141561093d5760405162461bcd60e51b815260206004820152601f60248201527f5265656e7472616e637947756172643a207265656e7472616e742063616c6c006044820152606401610570565b6002609a556001600160a01b038316600090815260208190526040902054156109ce5760405162461bcd60e51b815260206004820152602860248201527f44616e6b42616e6b4d61726b65743a20706f6f6c20616c726561647920696e6960448201527f7469616c697a65640000000000000000000000000000000000000000000000006064820152608401610570565b6000821180156109de5750600081115b610a505760405162461bcd60e51b815260206004820152603c60248201527f44616e6b42616e6b4d61726b65743a20696e697469616c20706f6f6c20616d6f60448201527f756e7473206d7573742062652067726561746572207468616e20302e000000006064820152608401610570565b610a67335b6001600160a01b038516903085611e02565b6001600160a01b03831660008181526001602052604081208054349290610a8f908490613212565b90915550506001600160a01b0384166000908152602081905260408120839055610ab93484613212565b9050610ad633838360405180602001604052806000815250611ea1565b604080516001600160a01b03871681526020810186905290810182905233907f36f3b2e1a21c19137dd82ec243b0708a1d26b3d1fa1dc49c44c4c366a5878138906060015b60405180910390a250506001609a55505050565b6002609a541415610b825760405162461bcd60e51b815260206004820152601f60248201527f5265656e7472616e637947756172643a207265656e7472616e742063616c6c006044820152606401610570565b6002609a556001600160a01b038316600090815260208190526040902054610c14576040805162461bcd60e51b81526020600482015260248101919091527f44616e6b42616e6b4d61726b65743a20706f6f6c206d75737420626520696e6960448201527f7469616c697a6564206265666f726520616464696e67206c69717569646974796064820152608401610570565b610c1d33610a55565b60006001600160a01b0384166040516370a0823160e01b815230600482015290915060009084906001600160a01b038716906370a082319060240160206040518083038186803b158015610c7057600080fd5b505afa158015610c84573d6000803e3d6000fd5b505050506040513d601f19601f82011682018060405250810190610ca89190613073565b610cb29190613269565b6001600160a01b038616600090815260016020526040812054919250908290610cdb908761324a565b610ce5919061322a565b905080341015610d5d5760405162461bcd60e51b815260206004820152602a60248201527f44616e6b42616e6b4d61726b65743a20696e73756666696369656e742045544860448201527f20737570706c6965642e000000000000000000000000000000000000000000006064820152608401610570565b83811015610dd35760405162461bcd60e51b815260206004820152603860248201527f44616e6b42616e6b4d61726b65743a2045544820737570706c696564206c657360448201527f73207468616e206d696e696d756d2072657175697265642e00000000000000006064820152608401610570565b6001600160a01b03861660009081526001602052604081208054839290610dfb908490613212565b90915550506001600160a01b0386166000908152602081905260408120548390610e25908861324a565b610e2f919061322a565b905080600080896001600160a01b03166001600160a01b031681526020019081526020016000206000828254610e659190613212565b90915550506000848152606a60205260408120548490610e85908961324a565b610e8f919061322a565b9050610eac33868360405180602001604052806000815250611ea1565b82341115610f5557600033610ec18534613269565b604051600081818185875af1925050503d8060008114610efd576040519150601f19603f3d011682016040523d82523d6000602084013e610f02565b606091505b5050905080610f535760405162461bcd60e51b815260206004820181905260248201527f44616e6b42616e6b4d61726b65743a205472616e73666572206661696c65642e6044820152606401610570565b505b604080516001600160a01b038a16815260208101899052808201839052905133917f36f3b2e1a21c19137dd82ec243b0708a1d26b3d1fa1dc49c44c4c366a5878138919081900360600190a250506001609a55505050505050565b6002609a5414156110035760405162461bcd60e51b815260206004820152601f60248201527f5265656e7472616e637947756172643a207265656e7472616e742063616c6c006044820152606401610570565b6002609a5560006110148484611238565b90508181101561108c5760405162461bcd60e51b815260206004820152602560248201527f44616e6b42616e6b4d61726b65743a20496e73756666696369656e742065746860448201527f206f75742e0000000000000000000000000000000000000000000000000000006064820152608401610570565b6001600160a01b03841660009081526001602052604090205481111561111c576040805162461bcd60e51b81526020600482015260248101919091527f44616e6b42616e6b4d61726b65743a204d61726b65742068617320696e73756660448201527f66696369656e74206c697175696469747920666f72207468652074726164652e6064820152608401610570565b6001600160a01b03841660008181526001602052604090208054839003905561114790333086611e02565b604051600090339083908381818185875af1925050503d8060008114611189576040519150601f19603f3d011682016040523d82523d6000602084013e61118e565b606091505b50509050806111df5760405162461bcd60e51b815260206004820181905260248201527f44616e6b42616e6b4d61726b65743a205472616e73666572206661696c65642e6044820152606401610570565b604080516001600160a01b03871681526020810184905290810185905233907f116315825ae78cd715af5d420fb35be93c7b3f4b9badb56c08397fc15a0f6ba090606001610b1b565b61123560016101f4613269565b81565b60008061124860016101f4613269565b6112518561186a565b61125b919061324a565b6040516370a0823160e01b81523060048201529091506000906101f4906001600160a01b038716906370a082319060240160206040518083038186803b1580156112a457600080fd5b505afa1580156112b8573d6000803e3d6000fd5b505050506040513d601f19601f820116820180604052508101906112dc9190613073565b6112e6919061324a565b9050836112f660016101f4613269565b611300919061324a565b61130a9082613212565b611314858461324a565b61131e919061322a565b95945050505050565b6002609a54141561137a5760405162461bcd60e51b815260206004820152601f60248201527f5265656e7472616e637947756172643a207265656e7472616e742063616c6c006044820152606401610570565b6002609a556001600160a01b0384166000818152606a6020908152604080832054600190925282205490919082906113b2908861324a565b6113bc919061322a565b6001600160a01b0388166000908152600160205260408120805492935083929091906113e9908490613269565b9091555050838110156114645760405162461bcd60e51b815260206004820152603a60248201527f44616e6b42616e6b4d61726b65743a20455448206f7574206973206c6573732060448201527f7468616e206d696e696d756d20455448207370656369666965640000000000006064820152608401610570565b6001600160a01b0387166000908152602081905260409020548290611489908861324a565b611493919061322a565b6001600160a01b038816600090815260208190526040812080549091906114bb908490613269565b90915550506040516370a0823160e01b815230600482015260009083906001600160a01b038a16906370a082319060240160206040518083038186803b15801561150457600080fd5b505afa158015611518573d6000803e3d6000fd5b505050506040513d601f19601f8201168201806040525081019061153c9190613073565b611546908961324a565b611550919061322a565b9050858110156115c85760405162461bcd60e51b815260206004820152603860248201527f44616e6b42616e6b4d61726b65743a20546f6b656e206f7574206973206c657360448201527f73207468616e206d696e696d756d2073706563696669656400000000000000006064820152608401610570565b6115d3338589611fed565b6115e76001600160a01b03891633836121af565b604051600090339084908381818185875af1925050503d8060008114611629576040519150601f19603f3d011682016040523d82523d6000602084013e61162e565b606091505b505090508061167f5760405162461bcd60e51b815260206004820181905260248201527f44616e6b42616e6b4d61726b65743a205472616e73666572206661696c65642e6044820152606401610570565b604080516001600160a01b038b16815260208101849052808201859052606081018a9052905133917fbc7d19d505c7ec4db83f3b51f19fb98c4c8a99922e7839d1ee608dfbee29501b919081900360800190a250506001609a5550505050505050565b336001600160a01b03831614156117615760405162461bcd60e51b815260206004820152602960248201527f455243313135353a2073657474696e6720617070726f76616c2073746174757360448201527f20666f722073656c6600000000000000000000000000000000000000000000006064820152608401610570565b3360008181526068602090815260408083206001600160a01b03871680855290835292819020805460ff191686151590811790915590519081529192917f17307eab39ab6107e8899845ad3d59bd9653f200f220920489ca2b5937696c31910160405180910390a35050565b6000806117dd60016101f4613269565b6040516370a0823160e01b81523060048201526001600160a01b038616906370a082319060240160206040518083038186803b15801561181c57600080fd5b505afa158015611830573d6000803e3d6000fd5b505050506040513d601f19601f820116820180604052508101906118549190613073565b61185e919061324a565b905060006101f46112dc865b6001600160a01b038116600090815260016020908152604080832054918390528220546106389190613212565b6002609a5414156118ea5760405162461bcd60e51b815260206004820152601f60248201527f5265656e7472616e637947756172643a207265656e7472616e742063616c6c006044820152606401610570565b6002609a5560006118fb83346117cd565b6001600160a01b038416600090815260016020526040812080549293503492909190611928908490613212565b9091555050818110156119a35760405162461bcd60e51b815260206004820152602860248201527f44616e6b42616e6b4d61726b65743a20496e73756666696369656e7420746f6b60448201527f656e73206f75742e0000000000000000000000000000000000000000000000006064820152608401610570565b6119b76001600160a01b03841633836121af565b604080516001600160a01b0385168152346020820152808201839052905133917f21607de45a7d0d7230e8947fbfebe75f6f833efacb9cabf5afa0b67f4693c285919081900360600190a250506001609a5550565b6001600160a01b038516331480611a285750611a288533610461565b611a9a5760405162461bcd60e51b815260206004820152602960248201527f455243313135353a2063616c6c6572206973206e6f74206f776e6572206e6f7260448201527f20617070726f76656400000000000000000000000000000000000000000000006064820152608401610570565b61076d85858585856121fd565b600254610100900460ff16611ac25760025460ff1615611ac6565b303b155b611b295760405162461bcd60e51b815260206004820152602e60248201527f496e697469616c697a61626c653a20636f6e747261637420697320616c72656160448201526d191e481a5b9a5d1a585b1a5e995960921b6064820152608401610570565b600254610100900460ff16158015611b4b576002805461ffff19166101011790555b611b548261239f565b8015611b66576002805461ff00191690555b5050565b3b151590565b8151835114611be75760405162461bcd60e51b815260206004820152602860248201527f455243313135353a2069647320616e6420616d6f756e7473206c656e6774682060448201527f6d69736d617463680000000000000000000000000000000000000000000000006064820152608401610570565b6001600160a01b038416611c4b5760405162461bcd60e51b815260206004820152602560248201527f455243313135353a207472616e7366657220746f20746865207a65726f206164604482015264647265737360d81b6064820152608401610570565b3360005b8451811015611d94576000858281518110611c7a57634e487b7160e01b600052603260045260246000fd5b602002602001015190506000858381518110611ca657634e487b7160e01b600052603260045260246000fd5b60209081029190910181015160008481526067835260408082206001600160a01b038e168352909352919091205490915081811015611d3a5760405162461bcd60e51b815260206004820152602a60248201527f455243313135353a20696e73756666696369656e742062616c616e636520666f60448201526939103a3930b739b332b960b11b6064820152608401610570565b60008381526067602090815260408083206001600160a01b038e8116855292528083208585039055908b16825281208054849290611d79908490613212565b9250508190555050505080611d8d90613314565b9050611c4f565b50846001600160a01b0316866001600160a01b0316826001600160a01b03167f4a39dc06d4c0dbc64b70af90fd698a233a518aa5d07e595d983b8c0526c8f7fb8787604051611de49291906131b6565b60405180910390a4611dfa81878787878761245c565b505050505050565b6040516001600160a01b0380851660248301528316604482015260648101829052611e9b9085907f23b872dd00000000000000000000000000000000000000000000000000000000906084015b60408051601f198184030181529190526020810180517bffffffffffffffffffffffffffffffffffffffffffffffffffffffff166001600160e01b031990931692909217909152612611565b50505050565b6001600160a01b038416611f1d5760405162461bcd60e51b815260206004820152602160248201527f455243313135353a206d696e7420746f20746865207a65726f2061646472657360448201527f73000000000000000000000000000000000000000000000000000000000000006064820152608401610570565b33611f3781600087611f2e886126f6565b61076d886126f6565b60008481526067602090815260408083206001600160a01b038916845290915281208054859290611f69908490613212565b909155505060408051858152602081018590526001600160a01b0380881692600092918516917fc3d58168c5ae7397731d063d5bbf3d657854427343f4c083240f7aacaa2d0f62910160405180910390a46000848152606a602052604081208054859290611fd8908490613212565b9091555061076d90508160008787878761274f565b6001600160a01b0383166120695760405162461bcd60e51b815260206004820152602360248201527f455243313135353a206275726e2066726f6d20746865207a65726f206164647260448201527f65737300000000000000000000000000000000000000000000000000000000006064820152608401610570565b336120998185600061207a876126f6565b612083876126f6565b5050604080516020810190915260009052505050565b60008381526067602090815260408083206001600160a01b0388168452909152902054828110156121315760405162461bcd60e51b8152602060048201526024808201527f455243313135353a206275726e20616d6f756e7420657863656564732062616c60448201527f616e6365000000000000000000000000000000000000000000000000000000006064820152608401610570565b60008481526067602090815260408083206001600160a01b038981168086529184528285208887039055888552606a84528285208054899003905582518981529384018890529092908616917fc3d58168c5ae7397731d063d5bbf3d657854427343f4c083240f7aacaa2d0f62910160405180910390a45050505050565b6040516001600160a01b0383166024820152604481018290526121f89084907fa9059cbb0000000000000000000000000000000000000000000000000000000090606401611e4f565b505050565b6001600160a01b0384166122615760405162461bcd60e51b815260206004820152602560248201527f455243313135353a207472616e7366657220746f20746865207a65726f206164604482015264647265737360d81b6064820152608401610570565b33612271818787611f2e886126f6565b60008481526067602090815260408083206001600160a01b038a168452909152902054838110156122f75760405162461bcd60e51b815260206004820152602a60248201527f455243313135353a20696e73756666696369656e742062616c616e636520666f60448201526939103a3930b739b332b960b11b6064820152608401610570565b60008581526067602090815260408083206001600160a01b038b8116855292528083208785039055908816825281208054869290612336908490613212565b909155505060408051868152602081018690526001600160a01b03808916928a821692918616917fc3d58168c5ae7397731d063d5bbf3d657854427343f4c083240f7aacaa2d0f62910160405180910390a461239682888888888861274f565b50505050505050565b600254610100900460ff166123ba5760025460ff16156123be565b303b155b6124215760405162461bcd60e51b815260206004820152602e60248201527f496e697469616c697a61626c653a20636f6e747261637420697320616c72656160448201526d191e481a5b9a5d1a585b1a5e995960921b6064820152608401610570565b600254610100900460ff16158015612443576002805461ffff19166101011790555b61244b61285a565b61245361285a565b611b54826128d9565b6001600160a01b0384163b15611dfa5760405163bc197c8160e01b81526001600160a01b0385169063bc197c81906124a0908990899088908890889060040161310d565b602060405180830381600087803b1580156124ba57600080fd5b505af19250505080156124ea575060408051601f3d908101601f191682019092526124e791810190612ff1565b60015b6125a0576124f661335b565b806308c379a01415612530575061250b613373565b806125165750612532565b8060405162461bcd60e51b815260040161057091906131db565b505b60405162461bcd60e51b815260206004820152603460248201527f455243313135353a207472616e7366657220746f206e6f6e204552433131353560448201527f526563656976657220696d706c656d656e7465720000000000000000000000006064820152608401610570565b6001600160e01b0319811663bc197c8160e01b146123965760405162461bcd60e51b815260206004820152602860248201527f455243313135353a204552433131353552656365697665722072656a656374656044820152676420746f6b656e7360c01b6064820152608401610570565b6000612666826040518060400160405280602081526020017f5361666545524332303a206c6f772d6c6576656c2063616c6c206661696c6564815250856001600160a01b03166129869092919063ffffffff16565b8051909150156121f857808060200190518101906126849190612fb9565b6121f85760405162461bcd60e51b815260206004820152602a60248201527f5361666545524332303a204552433230206f7065726174696f6e20646964206e60448201527f6f742073756363656564000000000000000000000000000000000000000000006064820152608401610570565b6040805160018082528183019092526060916000919060208083019080368337019050509050828160008151811061273e57634e487b7160e01b600052603260045260246000fd5b602090810291909101015292915050565b6001600160a01b0384163b15611dfa5760405163f23a6e6160e01b81526001600160a01b0385169063f23a6e6190612793908990899088908890889060040161316b565b602060405180830381600087803b1580156127ad57600080fd5b505af19250505080156127dd575060408051601f3d908101601f191682019092526127da91810190612ff1565b60015b6127e9576124f661335b565b6001600160e01b0319811663f23a6e6160e01b146123965760405162461bcd60e51b815260206004820152602860248201527f455243313135353a204552433131353552656365697665722072656a656374656044820152676420746f6b656e7360c01b6064820152608401610570565b600254610100900460ff166128d75760405162461bcd60e51b815260206004820152602b60248201527f496e697469616c697a61626c653a20636f6e7472616374206973206e6f74206960448201527f6e697469616c697a696e670000000000000000000000000000000000000000006064820152608401610570565b565b600254610100900460ff166128f45760025460ff16156128f8565b303b155b61295b5760405162461bcd60e51b815260206004820152602e60248201527f496e697469616c697a61626c653a20636f6e747261637420697320616c72656160448201526d191e481a5b9a5d1a585b1a5e995960921b6064820152608401610570565b600254610100900460ff1615801561297d576002805461ffff19166101011790555b611b548261299f565b606061299584846000856129b2565b90505b9392505050565b8051611b66906069906020840190612b2a565b606082471015612a2a5760405162461bcd60e51b815260206004820152602660248201527f416464726573733a20696e73756666696369656e742062616c616e636520666f60448201527f722063616c6c00000000000000000000000000000000000000000000000000006064820152608401610570565b843b612a785760405162461bcd60e51b815260206004820152601d60248201527f416464726573733a2063616c6c20746f206e6f6e2d636f6e74726163740000006044820152606401610570565b600080866001600160a01b03168587604051612a9491906130f1565b60006040518083038185875af1925050503d8060008114612ad1576040519150601f19603f3d011682016040523d82523d6000602084013e612ad6565b606091505b5091509150612ae6828286612af1565b979650505050505050565b60608315612b00575081612998565b825115612b105782518084602001fd5b8160405162461bcd60e51b815260040161057091906131db565b828054612b36906132ac565b90600052602060002090601f016020900481019282612b585760008555612b9e565b82601f10612b7157805160ff1916838001178555612b9e565b82800160010185558215612b9e579182015b82811115612b9e578251825591602001919060010190612b83565b50612baa929150612bae565b5090565b5b80821115612baa5760008155600101612baf565b600067ffffffffffffffff831115612bdd57612bdd613345565b604051612bf4601f8501601f1916602001826132e7565b809150838152848484011115612c0957600080fd5b83836020830137600060208583010152509392505050565b80356001600160a01b0381168114612c3857600080fd5b919050565b600082601f830112612c4d578081fd5b81356020612c5a826131ee565b604051612c6782826132e7565b8381528281019150858301600585901b87018401881015612c86578586fd5b855b85811015612ca457813584529284019290840190600101612c88565b5090979650505050505050565b600082601f830112612cc1578081fd5b61299883833560208501612bc3565b600060208284031215612ce1578081fd5b61299882612c21565b60008060408385031215612cfc578081fd5b612d0583612c21565b9150612d1360208401612c21565b90509250929050565b600080600080600060a08688031215612d33578081fd5b612d3c86612c21565b9450612d4a60208701612c21565b9350604086013567ffffffffffffffff80821115612d66578283fd5b612d7289838a01612c3d565b94506060880135915080821115612d87578283fd5b612d9389838a01612c3d565b93506080880135915080821115612da8578283fd5b50612db588828901612cb1565b9150509295509295909350565b600080600080600060a08688031215612dd9578081fd5b612de286612c21565b9450612df060208701612c21565b93506040860135925060608601359150608086013567ffffffffffffffff811115612e19578182fd5b612db588828901612cb1565b60008060408385031215612e37578182fd5b612e4083612c21565b91506020830135612e50816133fd565b809150509250929050565b60008060408385031215612e6d578182fd5b612e7683612c21565b946020939093013593505050565b600080600060608486031215612e98578283fd5b612ea184612c21565b95602085013595506040909401359392505050565b60008060008060808587031215612ecb578182fd5b612ed485612c21565b966020860135965060408601359560600135945092505050565b60008060408385031215612f00578182fd5b823567ffffffffffffffff80821115612f17578384fd5b818501915085601f830112612f2a578384fd5b81356020612f37826131ee565b604051612f4482826132e7565b8381528281019150858301600585901b870184018b1015612f63578889fd5b8896505b84871015612f8c57612f7881612c21565b835260019690960195918301918301612f67565b5096505086013592505080821115612fa2578283fd5b50612faf85828601612c3d565b9150509250929050565b600060208284031215612fca578081fd5b8151612998816133fd565b600060208284031215612fe6578081fd5b81356129988161340e565b600060208284031215613002578081fd5b81516129988161340e565b60006020828403121561301e578081fd5b813567ffffffffffffffff811115613034578182fd5b8201601f81018413613044578182fd5b61305384823560208401612bc3565b949350505050565b60006020828403121561306c578081fd5b5035919050565b600060208284031215613084578081fd5b5051919050565b6000815180845260208085019450808401835b838110156130ba5781518752958201959082019060010161309e565b509495945050505050565b600081518084526130dd816020860160208601613280565b601f01601f19169290920160200192915050565b60008251613103818460208701613280565b9190910192915050565b60006001600160a01b03808816835280871660208401525060a0604083015261313960a083018661308b565b828103606084015261314b818661308b565b9050828103608084015261315f81856130c5565b98975050505050505050565b60006001600160a01b03808816835280871660208401525084604083015283606083015260a06080830152612ae660a08301846130c5565b602081526000612998602083018461308b565b6040815260006131c9604083018561308b565b828103602084015261131e818561308b565b60208152600061299860208301846130c5565b600067ffffffffffffffff82111561320857613208613345565b5060051b60200190565b600082198211156132255761322561332f565b500190565b60008261324557634e487b7160e01b81526012600452602481fd5b500490565b60008160001904831182151516156132645761326461332f565b500290565b60008282101561327b5761327b61332f565b500390565b60005b8381101561329b578181015183820152602001613283565b83811115611e9b5750506000910152565b600181811c908216806132c057607f821691505b602082108114156132e157634e487b7160e01b600052602260045260246000fd5b50919050565b601f8201601f1916810167ffffffffffffffff8111828210171561330d5761330d613345565b6040525050565b60006000198214156133285761332861332f565b5060010190565b634e487b7160e01b600052601160045260246000fd5b634e487b7160e01b600052604160045260246000fd5b600060033d111561337057600481823e5160e01c5b90565b600060443d10156133815790565b6040516003193d81016004833e81513d67ffffffffffffffff81602484011181841117156133b157505050505090565b82850191508151818111156133c95750505050505090565b843d87010160208285010111156133e35750505050505090565b6133f2602082860101876132e7565b509095945050505050565b801515811461340b57600080fd5b50565b6001600160e01b03198116811461340b57600080fdfea164736f6c6343000804000a496e697469616c697a61626c653a20636f6e747261637420697320616c72656175726920666f7220696e697469616c697a696e672074686520696d706c656d656e746174696f6e20636f6e7472616374",
  "devdoc": {
    "kind": "dev",
    "methods": {
      "balanceOf(address,uint256)": {
        "details": "See {IERC1155-balanceOf}. Requirements: - `account` cannot be the zero address."
      },
      "balanceOfBatch(address[],uint256[])": {
        "details": "See {IERC1155-balanceOfBatch}. Requirements: - `accounts` and `ids` must have the same length."
      },
      "constructor": {
        "custom:oz-upgrades-unsafe-allow": "constructor"
      },
      "isApprovedForAll(address,address)": {
        "details": "See {IERC1155-isApprovedForAll}."
      },
      "safeBatchTransferFrom(address,address,uint256[],uint256[],bytes)": {
        "details": "See {IERC1155-safeBatchTransferFrom}."
      },
      "safeTransferFrom(address,address,uint256,uint256,bytes)": {
        "details": "See {IERC1155-safeTransferFrom}."
      },
      "setApprovalForAll(address,bool)": {
        "details": "See {IERC1155-setApprovalForAll}."
      },
      "supportsInterface(bytes4)": {
        "details": "See {IERC165-supportsInterface}."
      },
      "uri(uint256)": {
        "details": "See {IERC1155MetadataURI-uri}. This implementation returns the same URI for *all* token types. It relies on the token type ID substitution mechanism https://eips.ethereum.org/EIPS/eip-1155#metadata[defined in the EIP]. Clients calling this function must replace the `\\{id\\}` substring with the actual token type ID."
      }
    },
    "version": 1
  },
  "userdoc": {
    "kind": "user",
    "methods": {
      "lpTokenSupply(uint256)": {
        "notice": "Get the supply of the token"
      }
    },
    "version": 1
  },
  "storageLayout": {
    "storage": [
      {
        "astId": 5335,
        "contract": "contracts/DankBankMarket.sol:DankBankMarket",
        "label": "virtualEthPoolSupply",
        "offset": 0,
        "slot": "0",
        "type": "t_mapping(t_address,t_uint256)"
      },
      {
        "astId": 5339,
        "contract": "contracts/DankBankMarket.sol:DankBankMarket",
        "label": "ethPoolSupply",
        "offset": 0,
        "slot": "1",
        "type": "t_mapping(t_address,t_uint256)"
      },
      {
        "astId": 107,
        "contract": "contracts/DankBankMarket.sol:DankBankMarket",
        "label": "_initialized",
        "offset": 0,
        "slot": "2",
        "type": "t_bool"
      },
      {
        "astId": 110,
        "contract": "contracts/DankBankMarket.sol:DankBankMarket",
        "label": "_initializing",
        "offset": 1,
        "slot": "2",
        "type": "t_bool"
      },
      {
        "astId": 1000,
        "contract": "contracts/DankBankMarket.sol:DankBankMarket",
        "label": "__gap",
        "offset": 0,
        "slot": "3",
        "type": "t_array(t_uint256)50_storage"
      },
      {
        "astId": 1046,
        "contract": "contracts/DankBankMarket.sol:DankBankMarket",
        "label": "__gap",
        "offset": 0,
        "slot": "53",
        "type": "t_array(t_uint256)50_storage"
      },
      {
        "astId": 6126,
        "contract": "contracts/DankBankMarket.sol:DankBankMarket",
        "label": "_balances",
        "offset": 0,
        "slot": "103",
        "type": "t_mapping(t_uint256,t_mapping(t_address,t_uint256))"
      },
      {
        "astId": 6132,
        "contract": "contracts/DankBankMarket.sol:DankBankMarket",
        "label": "_operatorApprovals",
        "offset": 0,
        "slot": "104",
        "type": "t_mapping(t_address,t_mapping(t_address,t_bool))"
      },
      {
        "astId": 6134,
        "contract": "contracts/DankBankMarket.sol:DankBankMarket",
        "label": "_uri",
        "offset": 0,
        "slot": "105",
        "type": "t_string_storage"
      },
      {
        "astId": 6138,
        "contract": "contracts/DankBankMarket.sol:DankBankMarket",
        "label": "_tokenSupplies",
        "offset": 0,
        "slot": "106",
        "type": "t_mapping(t_uint256,t_uint256)"
      },
      {
        "astId": 7255,
        "contract": "contracts/DankBankMarket.sol:DankBankMarket",
        "label": "__gap",
        "offset": 0,
        "slot": "107",
        "type": "t_array(t_uint256)47_storage"
      },
      {
        "astId": 188,
        "contract": "contracts/DankBankMarket.sol:DankBankMarket",
        "label": "_status",
        "offset": 0,
        "slot": "154",
        "type": "t_uint256"
      },
      {
        "astId": 231,
        "contract": "contracts/DankBankMarket.sol:DankBankMarket",
        "label": "__gap",
        "offset": 0,
        "slot": "155",
        "type": "t_array(t_uint256)49_storage"
      }
    ],
    "types": {
      "t_address": {
        "encoding": "inplace",
        "label": "address",
        "numberOfBytes": "20"
      },
      "t_array(t_uint256)47_storage": {
        "base": "t_uint256",
        "encoding": "inplace",
        "label": "uint256[47]",
        "numberOfBytes": "1504"
      },
      "t_array(t_uint256)49_storage": {
        "base": "t_uint256",
        "encoding": "inplace",
        "label": "uint256[49]",
        "numberOfBytes": "1568"
      },
      "t_array(t_uint256)50_storage": {
        "base": "t_uint256",
        "encoding": "inplace",
        "label": "uint256[50]",
        "numberOfBytes": "1600"
      },
      "t_bool": {
        "encoding": "inplace",
        "label": "bool",
        "numberOfBytes": "1"
      },
      "t_mapping(t_address,t_bool)": {
        "encoding": "mapping",
        "key": "t_address",
        "label": "mapping(address => bool)",
        "numberOfBytes": "32",
        "value": "t_bool"
      },
      "t_mapping(t_address,t_mapping(t_address,t_bool))": {
        "encoding": "mapping",
        "key": "t_address",
        "label": "mapping(address => mapping(address => bool))",
        "numberOfBytes": "32",
        "value": "t_mapping(t_address,t_bool)"
      },
      "t_mapping(t_address,t_uint256)": {
        "encoding": "mapping",
        "key": "t_address",
        "label": "mapping(address => uint256)",
        "numberOfBytes": "32",
        "value": "t_uint256"
      },
      "t_mapping(t_uint256,t_mapping(t_address,t_uint256))": {
        "encoding": "mapping",
        "key": "t_uint256",
        "label": "mapping(uint256 => mapping(address => uint256))",
        "numberOfBytes": "32",
        "value": "t_mapping(t_address,t_uint256)"
      },
      "t_mapping(t_uint256,t_uint256)": {
        "encoding": "mapping",
        "key": "t_uint256",
        "label": "mapping(uint256 => uint256)",
        "numberOfBytes": "32",
        "value": "t_uint256"
      },
      "t_string_storage": {
        "encoding": "bytes",
        "label": "string",
        "numberOfBytes": "32"
      },
      "t_uint256": {
        "encoding": "inplace",
        "label": "uint256",
        "numberOfBytes": "32"
      }
    }
  }
}