{
  "address": "0xDa35f8ee30Edaac97A1B410e698a1bc5D2e8DB94",
  "abi": [
    {
      "anonymous": false,
      "inputs": [
        {
          "indexed": true,
          "internalType": "address",
          "name": "account",
          "type": "address"
        },
        {
          "indexed": true,
          "internalType": "address",
          "name": "operator",
          "type": "address"
        },
        {
          "indexed": false,
          "internalType": "bool",
          "name": "approved",
          "type": "bool"
        }
      ],
      "name": "ApprovalForAll",
      "type": "event"
    },
    {
      "anonymous": false,
      "inputs": [
        {
          "indexed": true,
          "internalType": "address",
          "name": "buyer",
          "type": "address"
        },
        {
          "indexed": false,
          "internalType": "address",
          "name": "token",
          "type": "address"
        },
        {
          "indexed": false,
          "internalType": "uint256",
          "name": "investmentAmount",
          "type": "uint256"
        },
        {
          "indexed": false,
          "internalType": "uint256",
          "name": "tokensBought",
          "type": "uint256"
        }
      ],
      "name": "DankBankBuy",
      "type": "event"
    },
    {
      "anonymous": false,
      "inputs": [
        {
          "indexed": true,
          "internalType": "address",
          "name": "seller",
          "type": "address"
        },
        {
          "indexed": false,
          "internalType": "address",
          "name": "token",
          "type": "address"
        },
        {
          "indexed": false,
          "internalType": "uint256",
          "name": "returnAmount",
          "type": "uint256"
        },
        {
          "indexed": false,
          "internalType": "uint256",
          "name": "tokensSold",
          "type": "uint256"
        }
      ],
      "name": "DankBankSell",
      "type": "event"
    },
    {
      "anonymous": false,
      "inputs": [
        {
          "indexed": true,
          "internalType": "address",
          "name": "funder",
          "type": "address"
        },
        {
          "indexed": false,
          "internalType": "address",
          "name": "token",
          "type": "address"
        },
        {
          "indexed": false,
          "internalType": "uint256",
          "name": "amountAdded",
          "type": "uint256"
        },
        {
          "indexed": false,
          "internalType": "uint256",
          "name": "sharesMinted",
          "type": "uint256"
        }
      ],
      "name": "LiquidityAdded",
      "type": "event"
    },
    {
      "anonymous": false,
      "inputs": [
        {
          "indexed": true,
          "internalType": "address",
          "name": "funder",
          "type": "address"
        },
        {
          "indexed": false,
          "internalType": "address",
          "name": "token",
          "type": "address"
        },
        {
          "indexed": false,
          "internalType": "uint256",
          "name": "tokensRemoved",
          "type": "uint256"
        },
        {
          "indexed": false,
          "internalType": "uint256",
          "name": "ethRemoved",
          "type": "uint256"
        },
        {
          "indexed": false,
          "internalType": "uint256",
          "name": "sharesBurnt",
          "type": "uint256"
        }
      ],
      "name": "LiquidityRemoved",
      "type": "event"
    },
    {
      "anonymous": false,
      "inputs": [
        {
          "indexed": true,
          "internalType": "address",
          "name": "operator",
          "type": "address"
        },
        {
          "indexed": true,
          "internalType": "address",
          "name": "from",
          "type": "address"
        },
        {
          "indexed": true,
          "internalType": "address",
          "name": "to",
          "type": "address"
        },
        {
          "indexed": false,
          "internalType": "uint256[]",
          "name": "ids",
          "type": "uint256[]"
        },
        {
          "indexed": false,
          "internalType": "uint256[]",
          "name": "values",
          "type": "uint256[]"
        }
      ],
      "name": "TransferBatch",
      "type": "event"
    },
    {
      "anonymous": false,
      "inputs": [
        {
          "indexed": true,
          "internalType": "address",
          "name": "operator",
          "type": "address"
        },
        {
          "indexed": true,
          "internalType": "address",
          "name": "from",
          "type": "address"
        },
        {
          "indexed": true,
          "internalType": "address",
          "name": "to",
          "type": "address"
        },
        {
          "indexed": false,
          "internalType": "uint256",
          "name": "id",
          "type": "uint256"
        },
        {
          "indexed": false,
          "internalType": "uint256",
          "name": "value",
          "type": "uint256"
        }
      ],
      "name": "TransferSingle",
      "type": "event"
    },
    {
      "anonymous": false,
      "inputs": [
        {
          "indexed": false,
          "internalType": "string",
          "name": "value",
          "type": "string"
        },
        {
          "indexed": true,
          "internalType": "uint256",
          "name": "id",
          "type": "uint256"
        }
      ],
      "name": "URI",
      "type": "event"
    },
    {
      "inputs": [],
      "name": "FEE_MULTIPLIER",
      "outputs": [
        {
          "internalType": "uint256",
          "name": "",
          "type": "uint256"
        }
      ],
      "stateMutability": "view",
      "type": "function"
    },
    {
      "inputs": [],
      "name": "MULTIPLIER_SUB_ONE",
      "outputs": [
        {
          "internalType": "uint256",
          "name": "",
          "type": "uint256"
        }
      ],
      "stateMutability": "view",
      "type": "function"
    },
    {
      "inputs": [
        {
          "internalType": "uint256",
          "name": "",
          "type": "uint256"
        }
      ],
      "name": "_tokenSupplies",
      "outputs": [
        {
          "internalType": "uint256",
          "name": "",
          "type": "uint256"
        }
      ],
      "stateMutability": "view",
      "type": "function"
    },
    {
      "inputs": [
        {
          "internalType": "address",
          "name": "token",
          "type": "address"
        },
        {
          "internalType": "uint256",
          "name": "inputAmount",
          "type": "uint256"
        },
        {
          "internalType": "uint256",
          "name": "minEthAdded",
          "type": "uint256"
        }
      ],
      "name": "addLiquidity",
      "outputs": [],
      "stateMutability": "payable",
      "type": "function"
    },
    {
      "inputs": [
        {
          "internalType": "address",
          "name": "account",
          "type": "address"
        },
        {
          "internalType": "uint256",
          "name": "id",
          "type": "uint256"
        }
      ],
      "name": "balanceOf",
      "outputs": [
        {
          "internalType": "uint256",
          "name": "",
          "type": "uint256"
        }
      ],
      "stateMutability": "view",
      "type": "function"
    },
    {
      "inputs": [
        {
          "internalType": "address[]",
          "name": "accounts",
          "type": "address[]"
        },
        {
          "internalType": "uint256[]",
          "name": "ids",
          "type": "uint256[]"
        }
      ],
      "name": "balanceOfBatch",
      "outputs": [
        {
          "internalType": "uint256[]",
          "name": "",
          "type": "uint256[]"
        }
      ],
      "stateMutability": "view",
      "type": "function"
    },
    {
      "inputs": [
        {
          "internalType": "address",
          "name": "token",
          "type": "address"
        },
        {
          "internalType": "uint256",
          "name": "minTokensOut",
          "type": "uint256"
        }
      ],
      "name": "buy",
      "outputs": [],
      "stateMutability": "payable",
      "type": "function"
    },
    {
      "inputs": [
        {
          "internalType": "address",
          "name": "token",
          "type": "address"
        },
        {
          "internalType": "uint256",
          "name": "ethIn",
          "type": "uint256"
        }
      ],
      "name": "calculateBuyTokensOut",
      "outputs": [
        {
          "internalType": "uint256",
          "name": "tokensOut",
          "type": "uint256"
        }
      ],
      "stateMutability": "view",
      "type": "function"
    },
    {
      "inputs": [
        {
          "internalType": "address",
          "name": "token",
          "type": "address"
        },
        {
          "internalType": "uint256",
          "name": "tokensIn",
          "type": "uint256"
        }
      ],
      "name": "calculateSellEthOut",
      "outputs": [
        {
          "internalType": "uint256",
          "name": "ethOut",
          "type": "uint256"
        }
      ],
      "stateMutability": "view",
      "type": "function"
    },
    {
      "inputs": [
        {
          "internalType": "address",
          "name": "",
          "type": "address"
        }
      ],
      "name": "ethPoolSupply",
      "outputs": [
        {
          "internalType": "uint256",
          "name": "",
          "type": "uint256"
        }
      ],
      "stateMutability": "view",
      "type": "function"
    },
    {
      "inputs": [
        {
          "internalType": "address",
          "name": "token",
          "type": "address"
        }
      ],
      "name": "getTokenId",
      "outputs": [
        {
          "internalType": "uint256",
          "name": "",
          "type": "uint256"
        }
      ],
      "stateMutability": "pure",
      "type": "function"
    },
    {
      "inputs": [
        {
          "internalType": "address",
          "name": "token",
          "type": "address"
        }
      ],
      "name": "getTotalEthPoolSupply",
      "outputs": [
        {
          "internalType": "uint256",
          "name": "",
          "type": "uint256"
        }
      ],
      "stateMutability": "view",
      "type": "function"
    },
    {
      "inputs": [
        {
          "internalType": "string",
          "name": "uri",
          "type": "string"
        }
      ],
      "name": "init",
      "outputs": [],
      "stateMutability": "nonpayable",
      "type": "function"
    },
    {
      "inputs": [
        {
          "internalType": "address",
          "name": "token",
          "type": "address"
        },
        {
          "internalType": "uint256",
          "name": "inputAmount",
          "type": "uint256"
        },
        {
          "internalType": "uint256",
          "name": "initVirtualEthSupply",
          "type": "uint256"
        }
      ],
      "name": "initPool",
      "outputs": [],
      "stateMutability": "nonpayable",
      "type": "function"
    },
    {
      "inputs": [
        {
          "internalType": "address",
          "name": "account",
          "type": "address"
        },
        {
          "internalType": "address",
          "name": "operator",
          "type": "address"
        }
      ],
      "name": "isApprovedForAll",
      "outputs": [
        {
          "internalType": "bool",
          "name": "",
          "type": "bool"
        }
      ],
      "stateMutability": "view",
      "type": "function"
    },
    {
      "inputs": [
        {
          "internalType": "uint256",
          "name": "tokenId",
          "type": "uint256"
        }
      ],
      "name": "lpTokenSupply",
      "outputs": [
        {
          "internalType": "uint256",
          "name": "",
          "type": "uint256"
        }
      ],
      "stateMutability": "view",
      "type": "function"
    },
    {
      "inputs": [
        {
          "internalType": "address",
          "name": "token",
          "type": "address"
        },
        {
          "internalType": "uint256",
          "name": "burnAmount",
          "type": "uint256"
        },
        {
          "internalType": "uint256",
          "name": "minTokens",
          "type": "uint256"
        },
        {
          "internalType": "uint256",
          "name": "minEth",
          "type": "uint256"
        }
      ],
      "name": "removeLiquidity",
      "outputs": [],
      "stateMutability": "nonpayable",
      "type": "function"
    },
    {
      "inputs": [
        {
          "internalType": "address",
          "name": "from",
          "type": "address"
        },
        {
          "internalType": "address",
          "name": "to",
          "type": "address"
        },
        {
          "internalType": "uint256[]",
          "name": "ids",
          "type": "uint256[]"
        },
        {
          "internalType": "uint256[]",
          "name": "amounts",
          "type": "uint256[]"
        },
        {
          "internalType": "bytes",
          "name": "data",
          "type": "bytes"
        }
      ],
      "name": "safeBatchTransferFrom",
      "outputs": [],
      "stateMutability": "nonpayable",
      "type": "function"
    },
    {
      "inputs": [
        {
          "internalType": "address",
          "name": "from",
          "type": "address"
        },
        {
          "internalType": "address",
          "name": "to",
          "type": "address"
        },
        {
          "internalType": "uint256",
          "name": "id",
          "type": "uint256"
        },
        {
          "internalType": "uint256",
          "name": "amount",
          "type": "uint256"
        },
        {
          "internalType": "bytes",
          "name": "data",
          "type": "bytes"
        }
      ],
      "name": "safeTransferFrom",
      "outputs": [],
      "stateMutability": "nonpayable",
      "type": "function"
    },
    {
      "inputs": [
        {
          "internalType": "address",
          "name": "token",
          "type": "address"
        },
        {
          "internalType": "uint256",
          "name": "tokensIn",
          "type": "uint256"
        },
        {
          "internalType": "uint256",
          "name": "minEthOut",
          "type": "uint256"
        }
      ],
      "name": "sell",
      "outputs": [],
      "stateMutability": "nonpayable",
      "type": "function"
    },
    {
      "inputs": [
        {
          "internalType": "address",
          "name": "operator",
          "type": "address"
        },
        {
          "internalType": "bool",
          "name": "approved",
          "type": "bool"
        }
      ],
      "name": "setApprovalForAll",
      "outputs": [],
      "stateMutability": "nonpayable",
      "type": "function"
    },
    {
      "inputs": [
        {
          "internalType": "bytes4",
          "name": "interfaceId",
          "type": "bytes4"
        }
      ],
      "name": "supportsInterface",
      "outputs": [
        {
          "internalType": "bool",
          "name": "",
          "type": "bool"
        }
      ],
      "stateMutability": "view",
      "type": "function"
    },
    {
      "inputs": [
        {
          "internalType": "uint256",
          "name": "",
          "type": "uint256"
        }
      ],
      "name": "uri",
      "outputs": [
        {
          "internalType": "string",
          "name": "",
          "type": "string"
        }
      ],
      "stateMutability": "view",
      "type": "function"
    },
    {
      "inputs": [
        {
          "internalType": "address",
          "name": "",
          "type": "address"
        }
      ],
      "name": "virtualEthPoolSupply",
      "outputs": [
        {
          "internalType": "uint256",
          "name": "",
          "type": "uint256"
        }
      ],
      "stateMutability": "view",
      "type": "function"
    }
  ],
  "transactionHash": "0x5970eb1c8cb00b4a42f10802d38acb8eb3fb517351576e736d1480c190c563c6",
  "args": [],
  "solcInputHash": "a0699fe23fba552963bf6600f461dde8",
  "bytecode": "0x608060405234801561001057600080fd5b5061325c806100206000396000f3fe60806040526004361061018a5760003560e01c806382b1efc1116100d6578063cce7ec131161007f578063f153768611610059578063f15376861461049c578063f242432a146104c3578063f9fbdb9e146104e357600080fd5b8063cce7ec1314610413578063d315698814610426578063e985e9c51461045357600080fd5b8063a615e05a116100b0578063a615e05a146103bd578063b591b13c146103dd578063b6e7d665146103f357600080fd5b806382b1efc11461035057806393ca2f8a1461037d578063a22cb4651461039d57600080fd5b80634e1273f4116101385780636a272462116101125780636a272462146102fb57806375beb82c1461031b5780638108dd211461033057600080fd5b80634e1273f41461029b57806350eb2145146102c857806355776b77146102e857600080fd5b80630f991c38116101695780630f991c381461021f57806324eb07f51461024c5780632eb2c2d61461027957600080fd5b8062fdd58e1461018f57806301ffc9a7146101c25780630e89341c146101f2575b600080fd5b34801561019b57600080fd5b506101af6101aa366004612c89565b610503565b6040519081526020015b60405180910390f35b3480156101ce57600080fd5b506101e26101dd366004612e03565b6105ae565b60405190151581526020016101b9565b3480156101fe57600080fd5b5061021261020d366004612e89565b61064b565b6040516101b99190613009565b34801561022b57600080fd5b506101af61023a366004612afe565b60006020819052908152604090205481565b34801561025857600080fd5b506101af610267366004612afe565b60016020526000908152604090205481565b34801561028557600080fd5b50610299610294366004612b4a565b6106df565b005b3480156102a757600080fd5b506102bb6102b6366004612d1c565b610781565b6040516101b99190612fd1565b3480156102d457600080fd5b506102996102e3366004612cb2565b6108f7565b6102996102f6366004612cb2565b610aa6565b34801561030757600080fd5b50610299610316366004612cb2565b610eca565b34801561032757600080fd5b506101af6110f4565b34801561033c57600080fd5b506101af61034b366004612c89565b611104565b34801561035c57600080fd5b506101af61036b366004612e89565b606a6020526000908152604090205481565b34801561038957600080fd5b50610299610398366004612ce4565b6111f3565b3480156103a957600080fd5b506102996103b8366004612c53565b611551565b3480156103c957600080fd5b506101af6103d8366004612c89565b61163c565b3480156103e957600080fd5b506101af6101f481565b3480156103ff57600080fd5b506101af61040e366004612afe565b6116d9565b610299610421366004612c89565b611706565b34801561043257600080fd5b506101af610441366004612e89565b6000908152606a602052604090205490565b34801561045f57600080fd5b506101e261046e366004612b18565b6001600160a01b03918216600090815260686020908152604080832093909416825291909152205460ff1690565b3480156104a857600080fd5b506101af6104b7366004612afe565b6001600160a01b031690565b3480156104cf57600080fd5b506102996104de366004612bf0565b61181e565b3480156104ef57600080fd5b506102996104fe366004612e3b565b6118b9565b60006001600160a01b0383166105865760405162461bcd60e51b815260206004820152602b60248201527f455243313135353a2062616c616e636520717565727920666f7220746865207a60448201527f65726f206164647265737300000000000000000000000000000000000000000060648201526084015b60405180910390fd5b5060009081526067602090815260408083206001600160a01b03949094168352929052205490565b60006001600160e01b031982167fd9b67a2600000000000000000000000000000000000000000000000000000000148061061157506001600160e01b031982167f0e89341c00000000000000000000000000000000000000000000000000000000145b8061064557507f01ffc9a7000000000000000000000000000000000000000000000000000000006001600160e01b03198316145b92915050565b60606069805461065a906130da565b80601f0160208091040260200160405190810160405280929190818152602001828054610686906130da565b80156106d35780601f106106a8576101008083540402835291602001916106d3565b820191906000526020600020905b8154815290600101906020018083116106b657829003601f168201915b50505050509050919050565b6001600160a01b0385163314806106fb57506106fb853361046e565b61076d5760405162461bcd60e51b815260206004820152603260248201527f455243313135353a207472616e736665722063616c6c6572206973206e6f742060448201527f6f776e6572206e6f7220617070726f7665640000000000000000000000000000606482015260840161057d565b61077a8585858585611976565b5050505050565b606081518351146107fa5760405162461bcd60e51b815260206004820152602960248201527f455243313135353a206163636f756e747320616e6420696473206c656e67746860448201527f206d69736d617463680000000000000000000000000000000000000000000000606482015260840161057d565b6000835167ffffffffffffffff81111561082457634e487b7160e01b600052604160045260246000fd5b60405190808252806020026020018201604052801561084d578160200160208202803683370190505b50905060005b84518110156108ef576108b485828151811061087f57634e487b7160e01b600052603260045260246000fd5b60200260200101518583815181106108a757634e487b7160e01b600052603260045260246000fd5b6020026020010151610503565b8282815181106108d457634e487b7160e01b600052603260045260246000fd5b60209081029190910101526108e881613142565b9050610853565b509392505050565b6001600160a01b038316600090815260208190526040902054156109835760405162461bcd60e51b815260206004820152602860248201527f44616e6b42616e6b4d61726b65743a20706f6f6c20616c726561647920696e6960448201527f7469616c697a6564000000000000000000000000000000000000000000000000606482015260840161057d565b6000821180156109935750600081115b610a055760405162461bcd60e51b815260206004820152603c60248201527f44616e6b42616e6b4d61726b65743a20696e697469616c20706f6f6c20616d6f60448201527f756e7473206d7573742062652067726561746572207468616e20302e00000000606482015260840161057d565b610a1c335b6001600160a01b038516903085611c08565b60006001600160a01b0384169050610a4533828460405180602001604052806000815250611ca7565b6001600160a01b03841660008181526020818152604091829020859055815192835282018590528181018490525133917f36f3b2e1a21c19137dd82ec243b0708a1d26b3d1fa1dc49c44c4c366a5878138919081900360600190a250505050565b6001600160a01b038316600090815260208190526040902054610b33576040805162461bcd60e51b81526020600482015260248101919091527f44616e6b42616e6b4d61726b65743a20706f6f6c206d75737420626520696e6960448201527f7469616c697a6564206265666f726520616464696e67206c6971756964697479606482015260840161057d565b610b3c33610a0a565b60006001600160a01b0384166040516370a0823160e01b815230600482015290915060009084906001600160a01b038716906370a082319060240160206040518083038186803b158015610b8f57600080fd5b505afa158015610ba3573d6000803e3d6000fd5b505050506040513d601f19601f82011682018060405250810190610bc79190612ea1565b610bd19190613097565b6001600160a01b038616600090815260016020526040812054919250908290610bfa9087613078565b610c049190613058565b905080341015610c7c5760405162461bcd60e51b815260206004820152602a60248201527f44616e6b42616e6b4d61726b65743a20696e73756666696369656e742045544860448201527f20737570706c6965642e00000000000000000000000000000000000000000000606482015260840161057d565b83811015610cf25760405162461bcd60e51b815260206004820152603860248201527f44616e6b42616e6b4d61726b65743a2045544820737570706c696564206c657360448201527f73207468616e206d696e696d756d2072657175697265642e0000000000000000606482015260840161057d565b6001600160a01b03861660009081526001602052604081208054839290610d1a908490613040565b90915550506001600160a01b0386166000908152602081905260408120548390610d449088613078565b610d4e9190613058565b905080600080896001600160a01b03166001600160a01b031681526020019081526020016000206000828254610d849190613040565b90915550506000848152606a60205260408120548490610da49089613078565b610dae9190613058565b9050610dcb33868360405180602001604052806000815250611ca7565b82341115610e7457600033610de08534613097565b604051600081818185875af1925050503d8060008114610e1c576040519150601f19603f3d011682016040523d82523d6000602084013e610e21565b606091505b5050905080610e725760405162461bcd60e51b815260206004820181905260248201527f44616e6b42616e6b4d61726b65743a205472616e73666572206661696c65642e604482015260640161057d565b505b604080516001600160a01b038a16815260208101899052808201839052905133917f36f3b2e1a21c19137dd82ec243b0708a1d26b3d1fa1dc49c44c4c366a5878138919081900360600190a25050505050505050565b6000610ed68484611104565b905081811015610f4e5760405162461bcd60e51b815260206004820152602560248201527f44616e6b42616e6b4d61726b65743a20496e73756666696369656e742065746860448201527f206f75742e000000000000000000000000000000000000000000000000000000606482015260840161057d565b6001600160a01b038416600090815260016020526040902054811115610fde576040805162461bcd60e51b81526020600482015260248101919091527f44616e6b42616e6b4d61726b65743a204d61726b65742068617320696e73756660448201527f66696369656e74206c697175696469747920666f72207468652074726164652e606482015260840161057d565b6001600160a01b03841660008181526001602052604090208054839003905561100990333086611c08565b604051600090339083908381818185875af1925050503d806000811461104b576040519150601f19603f3d011682016040523d82523d6000602084013e611050565b606091505b50509050806110a15760405162461bcd60e51b815260206004820181905260248201527f44616e6b42616e6b4d61726b65743a205472616e73666572206661696c65642e604482015260640161057d565b604080516001600160a01b038716815260208101849052808201869052905133917f116315825ae78cd715af5d420fb35be93c7b3f4b9badb56c08397fc15a0f6ba0919081900360600190a25050505050565b61110160016101f4613097565b81565b60008061111460016101f4613097565b61111d856116d9565b6111279190613078565b6040516370a0823160e01b81523060048201529091506000906101f4906001600160a01b038716906370a082319060240160206040518083038186803b15801561117057600080fd5b505afa158015611184573d6000803e3d6000fd5b505050506040513d601f19601f820116820180604052508101906111a89190612ea1565b6111b29190613078565b9050836111c260016101f4613097565b6111cc9190613078565b6111d69082613040565b6111e08584613078565b6111ea9190613058565b95945050505050565b6001600160a01b0384166000818152606a6020908152604080832054600190925282205490919082906112269088613078565b6112309190613058565b6001600160a01b03881660009081526001602052604081208054929350839290919061125d908490613097565b9091555050838110156112d85760405162461bcd60e51b815260206004820152603a60248201527f44616e6b42616e6b4d61726b65743a20455448206f7574206973206c6573732060448201527f7468616e206d696e696d756d2045544820737065636966696564000000000000606482015260840161057d565b6001600160a01b03871660009081526020819052604090205482906112fd9088613078565b6113079190613058565b6001600160a01b0388166000908152602081905260408120805490919061132f908490613097565b90915550506040516370a0823160e01b815230600482015260009083906001600160a01b038a16906370a082319060240160206040518083038186803b15801561137857600080fd5b505afa15801561138c573d6000803e3d6000fd5b505050506040513d601f19601f820116820180604052508101906113b09190612ea1565b6113ba9089613078565b6113c49190613058565b90508581101561143c5760405162461bcd60e51b815260206004820152603860248201527f44616e6b42616e6b4d61726b65743a20546f6b656e206f7574206973206c657360448201527f73207468616e206d696e696d756d207370656369666965640000000000000000606482015260840161057d565b611447338589611df3565b61145b6001600160a01b0389163383611fb5565b604051600090339084908381818185875af1925050503d806000811461149d576040519150601f19603f3d011682016040523d82523d6000602084013e6114a2565b606091505b50509050806114f35760405162461bcd60e51b815260206004820181905260248201527f44616e6b42616e6b4d61726b65743a205472616e73666572206661696c65642e604482015260640161057d565b604080516001600160a01b038b16815260208101849052808201859052606081018a9052905133917fbc7d19d505c7ec4db83f3b51f19fb98c4c8a99922e7839d1ee608dfbee29501b919081900360800190a2505050505050505050565b336001600160a01b03831614156115d05760405162461bcd60e51b815260206004820152602960248201527f455243313135353a2073657474696e6720617070726f76616c2073746174757360448201527f20666f722073656c660000000000000000000000000000000000000000000000606482015260840161057d565b3360008181526068602090815260408083206001600160a01b03871680855290835292819020805460ff191686151590811790915590519081529192917f17307eab39ab6107e8899845ad3d59bd9653f200f220920489ca2b5937696c31910160405180910390a35050565b60008061164c60016101f4613097565b6040516370a0823160e01b81523060048201526001600160a01b038616906370a082319060240160206040518083038186803b15801561168b57600080fd5b505afa15801561169f573d6000803e3d6000fd5b505050506040513d601f19601f820116820180604052508101906116c39190612ea1565b6116cd9190613078565b905060006101f46111a8865b6001600160a01b038116600090815260016020908152604080832054918390528220546106459190613040565b6000611712833461163c565b6001600160a01b03841660009081526001602052604081208054929350349290919061173f908490613040565b9091555050818110156117ba5760405162461bcd60e51b815260206004820152602860248201527f44616e6b42616e6b4d61726b65743a20496e73756666696369656e7420746f6b60448201527f656e73206f75742e000000000000000000000000000000000000000000000000606482015260840161057d565b6117ce6001600160a01b0384163383611fb5565b604080516001600160a01b0385168152346020820152808201839052905133917f21607de45a7d0d7230e8947fbfebe75f6f833efacb9cabf5afa0b67f4693c285919081900360600190a2505050565b6001600160a01b03851633148061183a575061183a853361046e565b6118ac5760405162461bcd60e51b815260206004820152602960248201527f455243313135353a2063616c6c6572206973206e6f74206f776e6572206e6f7260448201527f20617070726f7665640000000000000000000000000000000000000000000000606482015260840161057d565b61077a8585858585612003565b600254610100900460ff16806118d2575060025460ff16155b6119355760405162461bcd60e51b815260206004820152602e60248201527f496e697469616c697a61626c653a20636f6e747261637420697320616c72656160448201526d191e481a5b9a5d1a585b1a5e995960921b606482015260840161057d565b600254610100900460ff16158015611957576002805461ffff19166101011790555b611960826121a5565b8015611972576002805461ff00191690555b5050565b81518351146119ed5760405162461bcd60e51b815260206004820152602860248201527f455243313135353a2069647320616e6420616d6f756e7473206c656e6774682060448201527f6d69736d61746368000000000000000000000000000000000000000000000000606482015260840161057d565b6001600160a01b038416611a515760405162461bcd60e51b815260206004820152602560248201527f455243313135353a207472616e7366657220746f20746865207a65726f206164604482015264647265737360d81b606482015260840161057d565b3360005b8451811015611b9a576000858281518110611a8057634e487b7160e01b600052603260045260246000fd5b602002602001015190506000858381518110611aac57634e487b7160e01b600052603260045260246000fd5b60209081029190910181015160008481526067835260408082206001600160a01b038e168352909352919091205490915081811015611b405760405162461bcd60e51b815260206004820152602a60248201527f455243313135353a20696e73756666696369656e742062616c616e636520666f60448201526939103a3930b739b332b960b11b606482015260840161057d565b60008381526067602090815260408083206001600160a01b038e8116855292528083208585039055908b16825281208054849290611b7f908490613040565b9250508190555050505080611b9390613142565b9050611a55565b50846001600160a01b0316866001600160a01b0316826001600160a01b03167f4a39dc06d4c0dbc64b70af90fd698a233a518aa5d07e595d983b8c0526c8f7fb8787604051611bea929190612fe4565b60405180910390a4611c0081878787878761225c565b505050505050565b6040516001600160a01b0380851660248301528316604482015260648101829052611ca19085907f23b872dd00000000000000000000000000000000000000000000000000000000906084015b60408051601f198184030181529190526020810180517bffffffffffffffffffffffffffffffffffffffffffffffffffffffff166001600160e01b031990931692909217909152612411565b50505050565b6001600160a01b038416611d235760405162461bcd60e51b815260206004820152602160248201527f455243313135353a206d696e7420746f20746865207a65726f2061646472657360448201527f7300000000000000000000000000000000000000000000000000000000000000606482015260840161057d565b33611d3d81600087611d34886124f6565b61077a886124f6565b60008481526067602090815260408083206001600160a01b038916845290915281208054859290611d6f908490613040565b909155505060408051858152602081018590526001600160a01b0380881692600092918516917fc3d58168c5ae7397731d063d5bbf3d657854427343f4c083240f7aacaa2d0f62910160405180910390a46000848152606a602052604081208054859290611dde908490613040565b9091555061077a90508160008787878761254f565b6001600160a01b038316611e6f5760405162461bcd60e51b815260206004820152602360248201527f455243313135353a206275726e2066726f6d20746865207a65726f206164647260448201527f6573730000000000000000000000000000000000000000000000000000000000606482015260840161057d565b33611e9f81856000611e80876124f6565b611e89876124f6565b5050604080516020810190915260009052505050565b60008381526067602090815260408083206001600160a01b038816845290915290205482811015611f375760405162461bcd60e51b8152602060048201526024808201527f455243313135353a206275726e20616d6f756e7420657863656564732062616c60448201527f616e636500000000000000000000000000000000000000000000000000000000606482015260840161057d565b60008481526067602090815260408083206001600160a01b038981168086529184528285208887039055888552606a84528285208054899003905582518981529384018890529092908616917fc3d58168c5ae7397731d063d5bbf3d657854427343f4c083240f7aacaa2d0f62910160405180910390a45050505050565b6040516001600160a01b038316602482015260448101829052611ffe9084907fa9059cbb0000000000000000000000000000000000000000000000000000000090606401611c55565b505050565b6001600160a01b0384166120675760405162461bcd60e51b815260206004820152602560248201527f455243313135353a207472616e7366657220746f20746865207a65726f206164604482015264647265737360d81b606482015260840161057d565b33612077818787611d34886124f6565b60008481526067602090815260408083206001600160a01b038a168452909152902054838110156120fd5760405162461bcd60e51b815260206004820152602a60248201527f455243313135353a20696e73756666696369656e742062616c616e636520666f60448201526939103a3930b739b332b960b11b606482015260840161057d565b60008581526067602090815260408083206001600160a01b038b811685529252808320878503905590881682528120805486929061213c908490613040565b909155505060408051868152602081018690526001600160a01b03808916928a821692918616917fc3d58168c5ae7397731d063d5bbf3d657854427343f4c083240f7aacaa2d0f62910160405180910390a461219c82888888888861254f565b50505050505050565b600254610100900460ff16806121be575060025460ff16155b6122215760405162461bcd60e51b815260206004820152602e60248201527f496e697469616c697a61626c653a20636f6e747261637420697320616c72656160448201526d191e481a5b9a5d1a585b1a5e995960921b606482015260840161057d565b600254610100900460ff16158015612243576002805461ffff19166101011790555b61224b61265a565b61225361265a565b6119608261270d565b6001600160a01b0384163b15611c005760405163bc197c8160e01b81526001600160a01b0385169063bc197c81906122a09089908990889088908890600401612f3b565b602060405180830381600087803b1580156122ba57600080fd5b505af19250505080156122ea575060408051601f3d908101601f191682019092526122e791810190612e1f565b60015b6123a0576122f6613189565b806308c379a01415612330575061230b6131a1565b806123165750612332565b8060405162461bcd60e51b815260040161057d9190613009565b505b60405162461bcd60e51b815260206004820152603460248201527f455243313135353a207472616e7366657220746f206e6f6e204552433131353560448201527f526563656976657220696d706c656d656e746572000000000000000000000000606482015260840161057d565b6001600160e01b0319811663bc197c8160e01b1461219c5760405162461bcd60e51b815260206004820152602860248201527f455243313135353a204552433131353552656365697665722072656a656374656044820152676420746f6b656e7360c01b606482015260840161057d565b6000612466826040518060400160405280602081526020017f5361666545524332303a206c6f772d6c6576656c2063616c6c206661696c6564815250856001600160a01b03166127b49092919063ffffffff16565b805190915015611ffe57808060200190518101906124849190612de7565b611ffe5760405162461bcd60e51b815260206004820152602a60248201527f5361666545524332303a204552433230206f7065726174696f6e20646964206e60448201527f6f74207375636365656400000000000000000000000000000000000000000000606482015260840161057d565b6040805160018082528183019092526060916000919060208083019080368337019050509050828160008151811061253e57634e487b7160e01b600052603260045260246000fd5b602090810291909101015292915050565b6001600160a01b0384163b15611c005760405163f23a6e6160e01b81526001600160a01b0385169063f23a6e61906125939089908990889088908890600401612f99565b602060405180830381600087803b1580156125ad57600080fd5b505af19250505080156125dd575060408051601f3d908101601f191682019092526125da91810190612e1f565b60015b6125e9576122f6613189565b6001600160e01b0319811663f23a6e6160e01b1461219c5760405162461bcd60e51b815260206004820152602860248201527f455243313135353a204552433131353552656365697665722072656a656374656044820152676420746f6b656e7360c01b606482015260840161057d565b600254610100900460ff1680612673575060025460ff16155b6126d65760405162461bcd60e51b815260206004820152602e60248201527f496e697469616c697a61626c653a20636f6e747261637420697320616c72656160448201526d191e481a5b9a5d1a585b1a5e995960921b606482015260840161057d565b600254610100900460ff161580156126f8576002805461ffff19166101011790555b801561270a576002805461ff00191690555b50565b600254610100900460ff1680612726575060025460ff16155b6127895760405162461bcd60e51b815260206004820152602e60248201527f496e697469616c697a61626c653a20636f6e747261637420697320616c72656160448201526d191e481a5b9a5d1a585b1a5e995960921b606482015260840161057d565b600254610100900460ff161580156127ab576002805461ffff19166101011790555b611960826127cd565b60606127c384846000856127e0565b90505b9392505050565b8051611972906069906020840190612958565b6060824710156128585760405162461bcd60e51b815260206004820152602660248201527f416464726573733a20696e73756666696369656e742062616c616e636520666f60448201527f722063616c6c0000000000000000000000000000000000000000000000000000606482015260840161057d565b843b6128a65760405162461bcd60e51b815260206004820152601d60248201527f416464726573733a2063616c6c20746f206e6f6e2d636f6e7472616374000000604482015260640161057d565b600080866001600160a01b031685876040516128c29190612f1f565b60006040518083038185875af1925050503d80600081146128ff576040519150601f19603f3d011682016040523d82523d6000602084013e612904565b606091505b509150915061291482828661291f565b979650505050505050565b6060831561292e5750816127c6565b82511561293e5782518084602001fd5b8160405162461bcd60e51b815260040161057d9190613009565b828054612964906130da565b90600052602060002090601f01602090048101928261298657600085556129cc565b82601f1061299f57805160ff19168380011785556129cc565b828001600101855582156129cc579182015b828111156129cc5782518255916020019190600101906129b1565b506129d89291506129dc565b5090565b5b808211156129d857600081556001016129dd565b600067ffffffffffffffff831115612a0b57612a0b613173565b604051612a22601f8501601f191660200182613115565b809150838152848484011115612a3757600080fd5b83836020830137600060208583010152509392505050565b80356001600160a01b0381168114612a6657600080fd5b919050565b600082601f830112612a7b578081fd5b81356020612a888261301c565b604051612a958282613115565b8381528281019150858301600585901b87018401881015612ab4578586fd5b855b85811015612ad257813584529284019290840190600101612ab6565b5090979650505050505050565b600082601f830112612aef578081fd5b6127c6838335602085016129f1565b600060208284031215612b0f578081fd5b6127c682612a4f565b60008060408385031215612b2a578081fd5b612b3383612a4f565b9150612b4160208401612a4f565b90509250929050565b600080600080600060a08688031215612b61578081fd5b612b6a86612a4f565b9450612b7860208701612a4f565b9350604086013567ffffffffffffffff80821115612b94578283fd5b612ba089838a01612a6b565b94506060880135915080821115612bb5578283fd5b612bc189838a01612a6b565b93506080880135915080821115612bd6578283fd5b50612be388828901612adf565b9150509295509295909350565b600080600080600060a08688031215612c07578081fd5b612c1086612a4f565b9450612c1e60208701612a4f565b93506040860135925060608601359150608086013567ffffffffffffffff811115612c47578182fd5b612be388828901612adf565b60008060408385031215612c65578182fd5b612c6e83612a4f565b91506020830135612c7e8161322b565b809150509250929050565b60008060408385031215612c9b578182fd5b612ca483612a4f565b946020939093013593505050565b600080600060608486031215612cc6578283fd5b612ccf84612a4f565b95602085013595506040909401359392505050565b60008060008060808587031215612cf9578182fd5b612d0285612a4f565b966020860135965060408601359560600135945092505050565b60008060408385031215612d2e578182fd5b823567ffffffffffffffff80821115612d45578384fd5b818501915085601f830112612d58578384fd5b81356020612d658261301c565b604051612d728282613115565b8381528281019150858301600585901b870184018b1015612d91578889fd5b8896505b84871015612dba57612da681612a4f565b835260019690960195918301918301612d95565b5096505086013592505080821115612dd0578283fd5b50612ddd85828601612a6b565b9150509250929050565b600060208284031215612df8578081fd5b81516127c68161322b565b600060208284031215612e14578081fd5b81356127c681613239565b600060208284031215612e30578081fd5b81516127c681613239565b600060208284031215612e4c578081fd5b813567ffffffffffffffff811115612e62578182fd5b8201601f81018413612e72578182fd5b612e81848235602084016129f1565b949350505050565b600060208284031215612e9a578081fd5b5035919050565b600060208284031215612eb2578081fd5b5051919050565b6000815180845260208085019450808401835b83811015612ee857815187529582019590820190600101612ecc565b509495945050505050565b60008151808452612f0b8160208601602086016130ae565b601f01601f19169290920160200192915050565b60008251612f318184602087016130ae565b9190910192915050565b60006001600160a01b03808816835280871660208401525060a06040830152612f6760a0830186612eb9565b8281036060840152612f798186612eb9565b90508281036080840152612f8d8185612ef3565b98975050505050505050565b60006001600160a01b03808816835280871660208401525084604083015283606083015260a0608083015261291460a0830184612ef3565b6020815260006127c66020830184612eb9565b604081526000612ff76040830185612eb9565b82810360208401526111ea8185612eb9565b6020815260006127c66020830184612ef3565b600067ffffffffffffffff82111561303657613036613173565b5060051b60200190565b600082198211156130535761305361315d565b500190565b60008261307357634e487b7160e01b81526012600452602481fd5b500490565b60008160001904831182151516156130925761309261315d565b500290565b6000828210156130a9576130a961315d565b500390565b60005b838110156130c95781810151838201526020016130b1565b83811115611ca15750506000910152565b600181811c908216806130ee57607f821691505b6020821081141561310f57634e487b7160e01b600052602260045260246000fd5b50919050565b601f8201601f1916810167ffffffffffffffff8111828210171561313b5761313b613173565b6040525050565b60006000198214156131565761315661315d565b5060010190565b634e487b7160e01b600052601160045260246000fd5b634e487b7160e01b600052604160045260246000fd5b600060033d111561319e57600481823e5160e01c5b90565b600060443d10156131af5790565b6040516003193d81016004833e81513d67ffffffffffffffff81602484011181841117156131df57505050505090565b82850191508151818111156131f75750505050505090565b843d87010160208285010111156132115750505050505090565b61322060208286010187613115565b509095945050505050565b801515811461270a57600080fd5b6001600160e01b03198116811461270a57600080fdfea164736f6c6343000804000a",
  "devdoc": {
    "kind": "dev",
    "methods": {
      "balanceOf(address,uint256)": {
        "details": "See {IERC1155-balanceOf}. Requirements: - `account` cannot be the zero address."
      },
      "balanceOfBatch(address[],uint256[])": {
        "details": "See {IERC1155-balanceOfBatch}. Requirements: - `accounts` and `ids` must have the same length."
      },
      "isApprovedForAll(address,address)": {
        "details": "See {IERC1155-isApprovedForAll}."
      },
      "safeBatchTransferFrom(address,address,uint256[],uint256[],bytes)": {
        "details": "See {IERC1155-safeBatchTransferFrom}."
      },
      "safeTransferFrom(address,address,uint256,uint256,bytes)": {
        "details": "See {IERC1155-safeTransferFrom}."
      },
      "setApprovalForAll(address,bool)": {
        "details": "See {IERC1155-setApprovalForAll}."
      },
      "supportsInterface(bytes4)": {
        "details": "See {IERC165-supportsInterface}."
      },
      "uri(uint256)": {
        "details": "See {IERC1155MetadataURI-uri}. This implementation returns the same URI for *all* token types. It relies on the token type ID substitution mechanism https://eips.ethereum.org/EIPS/eip-1155#metadata[defined in the EIP]. Clients calling this function must replace the `\\{id\\}` substring with the actual token type ID."
      }
    },
    "version": 1
  },
  "userdoc": {
    "kind": "user",
    "methods": {
      "lpTokenSupply(uint256)": {
        "notice": "Get the supply of the token"
      }
    },
    "version": 1
  },
  "storageLayout": {
    "storage": [
      {
        "astId": 3618,
        "contract": "contracts/DankBankMarket.sol:DankBankMarket",
        "label": "virtualEthPoolSupply",
        "offset": 0,
        "slot": "0",
        "type": "t_mapping(t_address,t_uint256)"
      },
      {
        "astId": 3622,
        "contract": "contracts/DankBankMarket.sol:DankBankMarket",
        "label": "ethPoolSupply",
        "offset": 0,
        "slot": "1",
        "type": "t_mapping(t_address,t_uint256)"
      },
      {
        "astId": 5,
        "contract": "contracts/DankBankMarket.sol:DankBankMarket",
        "label": "_initialized",
        "offset": 0,
        "slot": "2",
        "type": "t_bool"
      },
      {
        "astId": 8,
        "contract": "contracts/DankBankMarket.sol:DankBankMarket",
        "label": "_initializing",
        "offset": 1,
        "slot": "2",
        "type": "t_bool"
      },
      {
        "astId": 509,
        "contract": "contracts/DankBankMarket.sol:DankBankMarket",
        "label": "__gap",
        "offset": 0,
        "slot": "3",
        "type": "t_array(t_uint256)50_storage"
      },
      {
        "astId": 555,
        "contract": "contracts/DankBankMarket.sol:DankBankMarket",
        "label": "__gap",
        "offset": 0,
        "slot": "53",
        "type": "t_array(t_uint256)50_storage"
      },
      {
        "astId": 3694,
        "contract": "contracts/DankBankMarket.sol:DankBankMarket",
        "label": "_balances",
        "offset": 0,
        "slot": "103",
        "type": "t_mapping(t_uint256,t_mapping(t_address,t_uint256))"
      },
      {
        "astId": 3700,
        "contract": "contracts/DankBankMarket.sol:DankBankMarket",
        "label": "_operatorApprovals",
        "offset": 0,
        "slot": "104",
        "type": "t_mapping(t_address,t_mapping(t_address,t_bool))"
      },
      {
        "astId": 3702,
        "contract": "contracts/DankBankMarket.sol:DankBankMarket",
        "label": "_uri",
        "offset": 0,
        "slot": "105",
        "type": "t_string_storage"
      },
      {
        "astId": 3706,
        "contract": "contracts/DankBankMarket.sol:DankBankMarket",
        "label": "_tokenSupplies",
        "offset": 0,
        "slot": "106",
        "type": "t_mapping(t_uint256,t_uint256)"
      },
      {
        "astId": 4823,
        "contract": "contracts/DankBankMarket.sol:DankBankMarket",
        "label": "__gap",
        "offset": 0,
        "slot": "107",
        "type": "t_array(t_uint256)47_storage"
      }
    ],
    "types": {
      "t_address": {
        "encoding": "inplace",
        "label": "address",
        "numberOfBytes": "20"
      },
      "t_array(t_uint256)47_storage": {
        "base": "t_uint256",
        "encoding": "inplace",
        "label": "uint256[47]",
        "numberOfBytes": "1504"
      },
      "t_array(t_uint256)50_storage": {
        "base": "t_uint256",
        "encoding": "inplace",
        "label": "uint256[50]",
        "numberOfBytes": "1600"
      },
      "t_bool": {
        "encoding": "inplace",
        "label": "bool",
        "numberOfBytes": "1"
      },
      "t_mapping(t_address,t_bool)": {
        "encoding": "mapping",
        "key": "t_address",
        "label": "mapping(address => bool)",
        "numberOfBytes": "32",
        "value": "t_bool"
      },
      "t_mapping(t_address,t_mapping(t_address,t_bool))": {
        "encoding": "mapping",
        "key": "t_address",
        "label": "mapping(address => mapping(address => bool))",
        "numberOfBytes": "32",
        "value": "t_mapping(t_address,t_bool)"
      },
      "t_mapping(t_address,t_uint256)": {
        "encoding": "mapping",
        "key": "t_address",
        "label": "mapping(address => uint256)",
        "numberOfBytes": "32",
        "value": "t_uint256"
      },
      "t_mapping(t_uint256,t_mapping(t_address,t_uint256))": {
        "encoding": "mapping",
        "key": "t_uint256",
        "label": "mapping(uint256 => mapping(address => uint256))",
        "numberOfBytes": "32",
        "value": "t_mapping(t_address,t_uint256)"
      },
      "t_mapping(t_uint256,t_uint256)": {
        "encoding": "mapping",
        "key": "t_uint256",
        "label": "mapping(uint256 => uint256)",
        "numberOfBytes": "32",
        "value": "t_uint256"
      },
      "t_string_storage": {
        "encoding": "bytes",
        "label": "string",
        "numberOfBytes": "32"
      },
      "t_uint256": {
        "encoding": "inplace",
        "label": "uint256",
        "numberOfBytes": "32"
      }
    }
  }
}