{
  "address": "0xB4482F0188e3bDB30cc5d06A7004E234d82e41C7",
  "abi": [
    {
      "inputs": [
        {
          "internalType": "address",
          "name": "_settings",
          "type": "address"
        }
      ],
      "stateMutability": "nonpayable",
      "type": "constructor"
    },
    {
      "anonymous": false,
      "inputs": [
        {
          "indexed": true,
          "internalType": "address",
          "name": "token",
          "type": "address"
        },
        {
          "indexed": false,
          "internalType": "uint256",
          "name": "id",
          "type": "uint256"
        },
        {
          "indexed": false,
          "internalType": "uint256",
          "name": "price",
          "type": "uint256"
        },
        {
          "indexed": false,
          "internalType": "address",
          "name": "vault",
          "type": "address"
        },
        {
          "indexed": false,
          "internalType": "uint256",
          "name": "vaultId",
          "type": "uint256"
        }
      ],
      "name": "Mint",
      "type": "event"
    },
    {
      "anonymous": false,
      "inputs": [
        {
          "indexed": true,
          "internalType": "address",
          "name": "previousOwner",
          "type": "address"
        },
        {
          "indexed": true,
          "internalType": "address",
          "name": "newOwner",
          "type": "address"
        }
      ],
      "name": "OwnershipTransferred",
      "type": "event"
    },
    {
      "anonymous": false,
      "inputs": [
        {
          "indexed": false,
          "internalType": "address",
          "name": "account",
          "type": "address"
        }
      ],
      "name": "Paused",
      "type": "event"
    },
    {
      "anonymous": false,
      "inputs": [
        {
          "indexed": false,
          "internalType": "address",
          "name": "account",
          "type": "address"
        }
      ],
      "name": "Unpaused",
      "type": "event"
    },
    {
      "inputs": [],
      "name": "logic",
      "outputs": [
        {
          "internalType": "address",
          "name": "",
          "type": "address"
        }
      ],
      "stateMutability": "view",
      "type": "function"
    },
    {
      "inputs": [
        {
          "internalType": "string",
          "name": "_name",
          "type": "string"
        },
        {
          "internalType": "string",
          "name": "_symbol",
          "type": "string"
        },
        {
          "internalType": "address",
          "name": "_token",
          "type": "address"
        },
        {
          "internalType": "uint256",
          "name": "_id",
          "type": "uint256"
        },
        {
          "internalType": "uint256",
          "name": "_supply",
          "type": "uint256"
        },
        {
          "internalType": "uint256",
          "name": "_listPrice",
          "type": "uint256"
        },
        {
          "internalType": "uint256",
          "name": "_fee",
          "type": "uint256"
        }
      ],
      "name": "mint",
      "outputs": [
        {
          "internalType": "uint256",
          "name": "",
          "type": "uint256"
        }
      ],
      "stateMutability": "nonpayable",
      "type": "function"
    },
    {
      "inputs": [],
      "name": "owner",
      "outputs": [
        {
          "internalType": "address",
          "name": "",
          "type": "address"
        }
      ],
      "stateMutability": "view",
      "type": "function"
    },
    {
      "inputs": [],
      "name": "pause",
      "outputs": [],
      "stateMutability": "nonpayable",
      "type": "function"
    },
    {
      "inputs": [],
      "name": "paused",
      "outputs": [
        {
          "internalType": "bool",
          "name": "",
          "type": "bool"
        }
      ],
      "stateMutability": "view",
      "type": "function"
    },
    {
      "inputs": [],
      "name": "renounceOwnership",
      "outputs": [],
      "stateMutability": "nonpayable",
      "type": "function"
    },
    {
      "inputs": [],
      "name": "settings",
      "outputs": [
        {
          "internalType": "address",
          "name": "",
          "type": "address"
        }
      ],
      "stateMutability": "view",
      "type": "function"
    },
    {
      "inputs": [
        {
          "internalType": "address",
          "name": "newOwner",
          "type": "address"
        }
      ],
      "name": "transferOwnership",
      "outputs": [],
      "stateMutability": "nonpayable",
      "type": "function"
    },
    {
      "inputs": [],
      "name": "unpause",
      "outputs": [],
      "stateMutability": "nonpayable",
      "type": "function"
    },
    {
      "inputs": [],
      "name": "vaultCount",
      "outputs": [
        {
          "internalType": "uint256",
          "name": "",
          "type": "uint256"
        }
      ],
      "stateMutability": "view",
      "type": "function"
    },
    {
      "inputs": [
        {
          "internalType": "uint256",
          "name": "",
          "type": "uint256"
        }
      ],
      "name": "vaults",
      "outputs": [
        {
          "internalType": "address",
          "name": "",
          "type": "address"
        }
      ],
      "stateMutability": "view",
      "type": "function"
    }
  ],
  "transactionHash": "0xb8bd7bad5ff04dfde6c0e8dce81f932efeba13d1bcf4117b585e5fef21d97b8b",
  "args": [
    "0xE1d71C5a8dA73bc50ed90e7ad6EE685aF3938DA0"
  ],
  "solcInputHash": "2585e23fe6e4f7f84297073a0aef36e4",
  "bytecode": "0x60c060405234801561001057600080fd5b506040516147ac3803806147ac83398101604081905261002f916100ed565b600080546001600160a01b031916339081178255604051909182917f8be0079c531659141344cd1fd0a4f28419497f9722a3daafe3b4186f6b6457e0908290a3506000805460ff60a01b191690556001600160601b0319606082901b16608052604051819061009d906100e0565b6001600160a01b039091168152602001604051809103906000f0801580156100c9573d6000803e3d6000fd5b5060601b6001600160601b03191660a0525061011b565b61381080610f9c83390190565b6000602082840312156100fe578081fd5b81516001600160a01b0381168114610114578182fd5b9392505050565b60805160601c60a05160601c610e4f61014d6000396000818161018b0152610440015260006101b20152610e4f6000f3fe608060405234801561001057600080fd5b50600436106100c95760003560e01c80638da5cb5b11610081578063d7dfa0dd1161005b578063d7dfa0dd14610186578063e06174e4146101ad578063f2fde38b146101d457600080fd5b80638da5cb5b1461014b578063a7c6a1001461015c578063bdc011101461017357600080fd5b8063715018a6116100b2578063715018a6146100fa5780638456cb59146101025780638c64ea4a1461010a57600080fd5b80633f4ba83a146100ce5780635c975abb146100d8575b600080fd5b6100d66101e7565b005b600054600160a01b900460ff1660405190151581526020015b60405180910390f35b6100d6610250565b6100d6610301565b6101336101183660046109c6565b6002602052600090815260409020546001600160a01b031681565b6040516001600160a01b0390911681526020016100f1565b6000546001600160a01b0316610133565b61016560015481565b6040519081526020016100f1565b610165610181366004610930565b610363565b6101337f000000000000000000000000000000000000000000000000000000000000000081565b6101337f000000000000000000000000000000000000000000000000000000000000000081565b6100d66101e236600461090f565b6105e5565b6000546001600160a01b031633146102465760405162461bcd60e51b815260206004820181905260248201527f4f776e61626c653a2063616c6c6572206973206e6f7420746865206f776e657260448201526064015b60405180910390fd5b61024e610723565b565b6000546001600160a01b031633146102aa5760405162461bcd60e51b815260206004820181905260248201527f4f776e61626c653a2063616c6c6572206973206e6f7420746865206f776e6572604482015260640161023d565b600080546040516001600160a01b03909116907f8be0079c531659141344cd1fd0a4f28419497f9722a3daafe3b4186f6b6457e0908390a36000805473ffffffffffffffffffffffffffffffffffffffff19169055565b6000546001600160a01b0316331461035b5760405162461bcd60e51b815260206004820181905260248201527f4f776e61626c653a2063616c6c6572206973206e6f7420746865206f776e6572604482015260640161023d565b61024e6107c9565b60008054600160a01b900460ff16156103be5760405162461bcd60e51b815260206004820152601060248201527f5061757361626c653a2070617573656400000000000000000000000000000000604482015260640161023d565b60003387878787878e8e6040516024016103df989796959493929190610a29565b60408051601f198184030181529181526020820180517bffffffffffffffffffffffffffffffffffffffffffffffffffffffff167f626fb2f000000000000000000000000000000000000000000000000000000000179052519091506000907f000000000000000000000000000000000000000000000000000000000000000090839061046b9061085e565b610476929190610a91565b604051809103906000f080158015610492573d6000803e3d6000fd5b509050876001600160a01b03167ff9c32fbc56ff04f32a233ebc26e388564223745e28abd8d0781dd906537f563e8887846001546040516104f5949392919093845260208401929092526001600160a01b03166040830152606082015260800190565b60405180910390a26040517f42842e0e0000000000000000000000000000000000000000000000000000000081523360048201526001600160a01b038281166024830152604482018990528916906342842e0e90606401600060405180830381600087803b15801561056657600080fd5b505af115801561057a573d6000803e3d6000fd5b5050600180546000908152600260205260408120805473ffffffffffffffffffffffffffffffffffffffff19166001600160a01b038716179055815493509091506105c483610ad2565b9190505550600180546105d79190610abb565b9a9950505050505050505050565b6000546001600160a01b0316331461063f5760405162461bcd60e51b815260206004820181905260248201527f4f776e61626c653a2063616c6c6572206973206e6f7420746865206f776e6572604482015260640161023d565b6001600160a01b0381166106bb5760405162461bcd60e51b815260206004820152602660248201527f4f776e61626c653a206e6577206f776e657220697320746865207a65726f206160448201527f6464726573730000000000000000000000000000000000000000000000000000606482015260840161023d565b600080546040516001600160a01b03808516939216917f8be0079c531659141344cd1fd0a4f28419497f9722a3daafe3b4186f6b6457e091a36000805473ffffffffffffffffffffffffffffffffffffffff19166001600160a01b0392909216919091179055565b600054600160a01b900460ff1661077c5760405162461bcd60e51b815260206004820152601460248201527f5061757361626c653a206e6f7420706175736564000000000000000000000000604482015260640161023d565b6000805460ff60a01b191690557f5db9ee0a495bf2e6ff9c91a7834c1ba4fdd244a5e8aa4e537bd38aeae4b073aa335b6040516001600160a01b03909116815260200160405180910390a1565b600054600160a01b900460ff16156108235760405162461bcd60e51b815260206004820152601060248201527f5061757361626c653a2070617573656400000000000000000000000000000000604482015260640161023d565b6000805460ff60a01b1916600160a01b1790557f62e78cea01bee320cd4e420270b5ea74000d11b0c9f74754ebdbfc544b05a2586107ac3390565b6103298062000b1a83390190565b80356001600160a01b038116811461088357600080fd5b919050565b600082601f830112610898578081fd5b813567ffffffffffffffff808211156108b3576108b3610b03565b604051601f8301601f19908116603f011681019082821181831017156108db576108db610b03565b816040528381528660208588010111156108f3578485fd5b8360208701602083013792830160200193909352509392505050565b600060208284031215610920578081fd5b6109298261086c565b9392505050565b600080600080600080600060e0888a03121561094a578283fd5b873567ffffffffffffffff80821115610961578485fd5b61096d8b838c01610888565b985060208a0135915080821115610982578485fd5b5061098f8a828b01610888565b96505061099e6040890161086c565b969995985095966060810135965060808101359560a0820135955060c0909101359350915050565b6000602082840312156109d7578081fd5b5035919050565b60008151808452815b81811015610a03576020818501810151868301820152016109e7565b81811115610a145782602083870101525b50601f01601f19169290920160200192915050565b60006101006001600160a01b03808c168452808b166020850152508860408401528760608401528660808401528560a08401528060c0840152610a6e818401866109de565b905082810360e0840152610a8281856109de565b9b9a5050505050505050505050565b6001600160a01b0383168152604060208201526000610ab360408301846109de565b949350505050565b600082821015610acd57610acd610aed565b500390565b6000600019821415610ae657610ae6610aed565b5060010190565b634e487b7160e01b600052601160045260246000fd5b634e487b7160e01b600052604160045260246000fdfe60a060405234801561001057600080fd5b5060405161032938038061032983398101604081905261002f916100d7565b6001600160601b0319606083901b1660805260405160009081906001600160a01b0385169061005f9085906101a0565b600060405180830381855af49150503d806000811461009a576040519150601f19603f3d011682016040523d82523d6000602084013e61009f565b606091505b50915091508181906100cd5760405162461bcd60e51b81526004016100c491906101bc565b60405180910390fd5b5050505050610235565b600080604083850312156100e9578182fd5b82516001600160a01b03811681146100ff578283fd5b60208401519092506001600160401b038082111561011b578283fd5b818501915085601f83011261012e578283fd5b8151818111156101405761014061021f565b604051601f8201601f19908116603f011681019083821181831017156101685761016861021f565b81604052828152886020848701011115610180578586fd5b6101918360208301602088016101ef565b80955050505050509250929050565b600082516101b28184602087016101ef565b9190910192915050565b60208152600082518060208401526101db8160408501602087016101ef565b601f01601f19169190910160400192915050565b60005b8381101561020a5781810151838201526020016101f2565b83811115610219576000848401525b50505050565b634e487b7160e01b600052604160045260246000fd5b60805160601c60d361025660003960008181602a0152607b015260d36000f3fe608060405260043610601f5760003560e01c8063d7dfa0dd14606b576025565b36602557005b6040517f00000000000000000000000000000000000000000000000000000000000000009036600082376000803683855af43d806000843e8180156067578184f35b8184fd5b348015607657600080fd5b50609d7f000000000000000000000000000000000000000000000000000000000000000081565b60405173ffffffffffffffffffffffffffffffffffffffff909116815260200160405180910390f3fea164736f6c6343000804000aa164736f6c6343000804000a60a06040523480156200001157600080fd5b50604051620038103803806200381083398101604081905262000034916200004a565b60601b6001600160601b0319166080526200007a565b6000602082840312156200005c578081fd5b81516001600160a01b038116811462000073578182fd5b9392505050565b60805160601c61371c620000f4600039600081816107cf015281816109f001528181610cb101528181610df101528181610e8e0152818161128b015281816113890152818161153e0152818161163c015281816117b801528181611a8601528181611fce01528181612bb20152612c49015261371c6000f3fe6080604052600436106102d15760003560e01c806380436fe011610179578063be040fb0116100d6578063dd62ed3e1161008a578063e66f53b711610064578063e66f53b7146107f1578063efbe1c1c14610811578063fc0c546a1461082657600080fd5b8063dd62ed3e14610761578063ddca3f43146107a7578063e06174e4146107bd57600080fd5b8063c91de649116100bb578063c91de6491461070a578063d294f09314610737578063db2e1eed1461074c57600080fd5b8063be040fb0146106ed578063be9a65551461070257600080fd5b80639a4e6d341161012d578063a9059cbb11610112578063a9059cbb146106a1578063adc1b956146106c1578063af640d0f146106d757600080fd5b80639a4e6d341461066b578063a457c2d71461068157600080fd5b80639012c4a81161015e5780639012c4a81461062157806395d89b4114610641578063961be3911461065657600080fd5b806380436fe0146105e1578063853a1b901461060157600080fd5b8063313ce56711610232578063626fb2f0116101e657806370a08231116101c057806370a08231146105675780637b5581ed1461059d5780637fb45099146105b357600080fd5b8063626fb2f0146105115780636a775714146105315780636da84e6c1461055157600080fd5b8063395093511161021757806339509351146104975780633fc8cef3146104b75780635c9920fc146104f757600080fd5b8063313ce56714610465578063325c25a21461048157600080fd5b80631998aeef116102895780632a24f46c1161026e5780632a24f46c1461040f5780632a44f120146104255780632bf33bd91461044557600080fd5b80631998aeef146103e757806323b872dd146103ef57600080fd5b80630c6a62dd116102ba5780630c6a62dd14610331578063150b7a021461035357806318160ddd146103c857600080fd5b806306fdde03146102d6578063095ea7b314610301575b600080fd5b3480156102e257600080fd5b506102eb610846565b6040516102f891906135d2565b60405180910390f35b34801561030d57600080fd5b5061032161031c36600461352f565b6108d8565b60405190151581526020016102f8565b34801561033d57600080fd5b5061035161034c366004613355565b6108ee565b005b34801561035f57600080fd5b5061039761036e366004613405565b7f150b7a0200000000000000000000000000000000000000000000000000000000949350505050565b6040517fffffffff0000000000000000000000000000000000000000000000000000000090911681526020016102f8565b3480156103d457600080fd5b506035545b6040519081526020016102f8565b610351610971565b3480156103fb57600080fd5b5061032161040a3660046133c5565b610bf0565b34801561041b57600080fd5b506103d960995481565b34801561043157600080fd5b50610351610440366004613355565b610caf565b34801561045157600080fd5b5061035161046036600461357a565b610da0565b34801561047157600080fd5b50604051601281526020016102f8565b34801561048d57600080fd5b506103d9609a5481565b3480156104a357600080fd5b506103216104b236600461352f565b610f74565b3480156104c357600080fd5b506104df73c02aaa39b223fe8d0a0e5c4f27ead9083c756cc281565b6040516001600160a01b0390911681526020016102f8565b34801561050357600080fd5b5060a1546103219060ff1681565b34801561051d57600080fd5b5061035161052c366004613482565b610fb0565b34801561053d57600080fd5b5061035161054c36600461357a565b611133565b34801561055d57600080fd5b506103d9609c5481565b34801561057357600080fd5b506103d9610582366004613355565b6001600160a01b031660009081526033602052604090205490565b3480156105a957600080fd5b506103d9609b5481565b3480156105bf57600080fd5b50609d546105d490600160a01b900460ff1681565b6040516102f891906135aa565b3480156105ed57600080fd5b506103516105fc366004613355565b6117b6565b34801561060d57600080fd5b50609d546104df906001600160a01b031681565b34801561062d57600080fd5b5061035161063c36600461357a565b611a35565b34801561064d57600080fd5b506102eb611b98565b34801561066257600080fd5b50610351611ba7565b34801561067757600080fd5b506103d960a25481565b34801561068d57600080fd5b5061032161069c36600461352f565b611ced565b3480156106ad57600080fd5b506103216106bc36600461352f565b611d9e565b3480156106cd57600080fd5b506103d960a05481565b3480156106e357600080fd5b506103d960985481565b3480156106f957600080fd5b50610351611dab565b610351611ef7565b34801561071657600080fd5b506103d9610725366004613355565b60a36020526000908152604090205481565b34801561074357600080fd5b50610351612147565b34801561075857600080fd5b506103d9612151565b34801561076d57600080fd5b506103d961077c36600461338d565b6001600160a01b03918216600090815260346020908152604080832093909416825291909152205490565b3480156107b357600080fd5b506103d9609f5481565b3480156107c957600080fd5b506104df7f000000000000000000000000000000000000000000000000000000000000000081565b3480156107fd57600080fd5b50609e546104df906001600160a01b031681565b34801561081d57600080fd5b50610351612178565b34801561083257600080fd5b506097546104df906001600160a01b031681565b60606036805461085590613693565b80601f016020809104026020016040519081016040528092919081815260200182805461088190613693565b80156108ce5780601f106108a3576101008083540402835291602001916108ce565b820191906000526020600020905b8154815290600101906020018083116108b157829003601f168201915b5050505050905090565b60006108e5338484612324565b50600192915050565b609e546001600160a01b031633146109425760405162461bcd60e51b81526020600482015260126024820152713ab83230ba329d3737ba1031bab930ba37b960711b60448201526064015b60405180910390fd5b609e805473ffffffffffffffffffffffffffffffffffffffff19166001600160a01b0392909216919091179055565b6001609d54600160a01b900460ff16600381111561099f57634e487b7160e01b600052602160045260246000fd5b146109ec5760405162461bcd60e51b815260206004820152601760248201527f6269643a61756374696f6e206973206e6f74206c6976650000000000000000006044820152606401610939565b60007f00000000000000000000000000000000000000000000000000000000000000006001600160a01b0316637c513c0f6040518163ffffffff1660e01b8152600401602060405180830381600087803b158015610a4957600080fd5b505af1158015610a5d573d6000803e3d6000fd5b505050506040513d601f19601f82011682018060405250810190610a819190613592565b610a8d906103e8613625565b905080609c54610a9d919061365d565b610aa9346103e861365d565b1015610af75760405162461bcd60e51b815260206004820152600f60248201527f6269643a746f6f206c6f772062696400000000000000000000000000000000006044820152606401610939565b6099544210610b485760405162461bcd60e51b815260206004820152601160248201527f6269643a61756374696f6e20656e6465640000000000000000000000000000006044820152606401610939565b61038442609954610b59919061367c565b11610b785761038460996000828254610b729190613625565b90915550505b609d54609c54610b91916001600160a01b03169061247c565b34609c819055609d805473ffffffffffffffffffffffffffffffffffffffff191633908117909155604051918252907fe684a55f31b79eca403df938249029212a5925ec6be8012e099b45bc1019e5d29060200160405180910390a250565b6000610bfd848484612624565b6001600160a01b038416600090815260346020908152604080832033845290915290205482811015610c975760405162461bcd60e51b815260206004820152602860248201527f45524332303a207472616e7366657220616d6f756e742065786365656473206160448201527f6c6c6f77616e63650000000000000000000000000000000000000000000000006064820152608401610939565b610ca48533858403612324565b506001949350505050565b7f00000000000000000000000000000000000000000000000000000000000000006001600160a01b0316638da5cb5b6040518163ffffffff1660e01b815260040160206040518083038186803b158015610d0857600080fd5b505afa158015610d1c573d6000803e3d6000fd5b505050506040513d601f19601f82011682018060405250810190610d409190613371565b6001600160a01b0316336001600160a01b0316146109425760405162461bcd60e51b815260206004820152600c60248201527f6b69636b3a6e6f7420676f7600000000000000000000000000000000000000006044820152606401610939565b609e546001600160a01b03163314610def5760405162461bcd60e51b81526020600482015260126024820152713ab83230ba329d3737ba1031bab930ba37b960711b6044820152606401610939565b7f00000000000000000000000000000000000000000000000000000000000000006001600160a01b031663a0b335e36040518163ffffffff1660e01b8152600401602060405180830381600087803b158015610e4a57600080fd5b505af1158015610e5e573d6000803e3d6000fd5b505050506040513d601f19601f82011682018060405250810190610e829190613592565b8110158015610f2357507f00000000000000000000000000000000000000000000000000000000000000006001600160a01b0316630e519ef96040518163ffffffff1660e01b8152600401602060405180830381600087803b158015610ee757600080fd5b505af1158015610efb573d6000803e3d6000fd5b505050506040513d601f19601f82011682018060405250810190610f1f9190613592565b8111155b610f6f5760405162461bcd60e51b815260206004820152601d60248201527f7570646174653a696e76616c69642061756374696f6e206c656e6774680000006044820152606401610939565b609a55565b3360008181526034602090815260408083206001600160a01b038716845290915281205490916108e5918590610fab908690613625565b612324565b600054610100900460ff1680610fc9575060005460ff16155b61102c5760405162461bcd60e51b815260206004820152602e60248201527f496e697469616c697a61626c653a20636f6e747261637420697320616c72656160448201526d191e481a5b9a5d1a585b1a5e995960921b6064820152608401610939565b600054610100900460ff1615801561104e576000805461ffff19166101011790555b6110588383612847565b61106061290d565b6097805473ffffffffffffffffffffffffffffffffffffffff19166001600160a01b038a161790556098879055611097868661365d565b609b5562093a80609a55609e805473ffffffffffffffffffffffffffffffffffffffff19166001600160a01b038b16179055609f8490554260a05584156110de57856110e1565b60005b60a255609d805460ff60a01b191690556110fb89876129c8565b6001600160a01b038916600090815260a3602052604090208590558015611128576000805461ff00191690555b505050505050505050565b6000609d54600160a01b900460ff16600381111561116157634e487b7160e01b600052602160045260246000fd5b146111be5760405162461bcd60e51b815260206004820152602760248201527f7570646174653a61756374696f6e206c6976652063616e6e6f742075706461746044820152666520707269636560c81b6064820152608401610939565b33600090815260a360205260409020548181141561121e5760405162461bcd60e51b815260206004820152601460248201527f7570646174653a6e6f7420616e207570646174650000000000000000000000006044820152606401610939565b3360009081526033602052604090205460a25461124c5760a2819055611244838261365d565b609b55611765565b60a2548114801561125c57508115155b1561126b57611244838261365d565b816114c157600060a254609b54611282919061363d565b905060006103e87f00000000000000000000000000000000000000000000000000000000000000006001600160a01b03166309990a966040518163ffffffff1660e01b8152600401602060405180830381600087803b1580156112e457600080fd5b505af11580156112f8573d6000803e3d6000fd5b505050506040513d601f19601f8201168201806040525081019061131c9190613592565b611326908461365d565b611330919061363d565b9050808510156113825760405162461bcd60e51b815260206004820152601c60248201527f7570646174653a7265736572766520707269636520746f6f206c6f77000000006044820152606401610939565b60006103e87f00000000000000000000000000000000000000000000000000000000000000006001600160a01b0316635410bfc96040518163ffffffff1660e01b8152600401602060405180830381600087803b1580156113e257600080fd5b505af11580156113f6573d6000803e3d6000fd5b505050506040513d601f19601f8201168201806040525081019061141a9190613592565b611424908561365d565b61142e919061363d565b9050808611156114805760405162461bcd60e51b815260206004820152601d60248201527f7570646174653a7265736572766520707269636520746f6f20686967680000006044820152606401610939565b8360a260008282546114929190613625565b909155506114a29050868561365d565b609b60008282546114b39190613625565b909155506117659350505050565b82611504578060a260008282546114d8919061367c565b909155506114e89050828261365d565b609b60008282546114f9919061367c565b909155506117659050565b60008160a254611514919061367c565b61151e838561365d565b609b5461152b919061367c565b611535919061363d565b905060006103e87f00000000000000000000000000000000000000000000000000000000000000006001600160a01b03166309990a966040518163ffffffff1660e01b8152600401602060405180830381600087803b15801561159757600080fd5b505af11580156115ab573d6000803e3d6000fd5b505050506040513d601f19601f820116820180604052508101906115cf9190613592565b6115d9908461365d565b6115e3919061363d565b9050808510156116355760405162461bcd60e51b815260206004820152601c60248201527f7570646174653a7265736572766520707269636520746f6f206c6f77000000006044820152606401610939565b60006103e87f00000000000000000000000000000000000000000000000000000000000000006001600160a01b0316635410bfc96040518163ffffffff1660e01b8152600401602060405180830381600087803b15801561169557600080fd5b505af11580156116a9573d6000803e3d6000fd5b505050506040513d601f19601f820116820180604052508101906116cd9190613592565b6116d7908561365d565b6116e1919061363d565b9050808611156117335760405162461bcd60e51b815260206004820152601d60248201527f7570646174653a7265736572766520707269636520746f6f20686967680000006044820152606401610939565b61173d858561365d565b611747878661365d565b609b546117549190613625565b61175e919061367c565b609b555050505b33600081815260a3602052604090819020859055517f64e6e7bd72b853c4e62fd6ceaca05a104700c70a4cb567c75c7f2242ba7f037c906117a99086815260200190565b60405180910390a2505050565b7f00000000000000000000000000000000000000000000000000000000000000006001600160a01b0316638da5cb5b6040518163ffffffff1660e01b815260040160206040518083038186803b15801561180f57600080fd5b505afa158015611823573d6000803e3d6000fd5b505050506040513d601f19601f820116820180604052508101906118479190613371565b6001600160a01b0316336001600160a01b0316146118a75760405162461bcd60e51b815260206004820152600e60248201527f72656d6f76653a6e6f7420676f760000000000000000000000000000000000006044820152606401610939565b6000609d54600160a01b900460ff1660038111156118d557634e487b7160e01b600052602160045260246000fd5b146119325760405162461bcd60e51b815260206004820152602760248201527f7570646174653a61756374696f6e206c6976652063616e6e6f742075706461746044820152666520707269636560c81b6064820152608401610939565b6001600160a01b038116600090815260a36020526040902054806119985760405162461bcd60e51b815260206004820152601460248201527f7570646174653a6e6f7420616e207570646174650000000000000000000000006044820152606401610939565b6001600160a01b03821660009081526033602052604081205490508060a260008282546119c5919061367c565b909155506119d59050828261365d565b609b60008282546119e6919061367c565b90915550506001600160a01b038316600081815260a360209081526040808320839055519182527f64e6e7bd72b853c4e62fd6ceaca05a104700c70a4cb567c75c7f2242ba7f037c91016117a9565b609e546001600160a01b03163314611a845760405162461bcd60e51b81526020600482015260126024820152713ab83230ba329d3737ba1031bab930ba37b960711b6044820152606401610939565b7f00000000000000000000000000000000000000000000000000000000000000006001600160a01b0316638a364bc16040518163ffffffff1660e01b8152600401602060405180830381600087803b158015611adf57600080fd5b505af1158015611af3573d6000803e3d6000fd5b505050506040513d601f19601f82011682018060405250810190611b179190613592565b811115611b8b5760405162461bcd60e51b8152602060048201526024808201527f7570646174653a63616e6e6f7420696e6372656173652066656520746869732060448201527f68696768000000000000000000000000000000000000000000000000000000006064820152608401610939565b611b93612ab3565b609f55565b60606037805461085590613693565b6002609d54600160a01b900460ff166003811115611bd557634e487b7160e01b600052602160045260246000fd5b14611c225760405162461bcd60e51b815260206004820152601960248201527f636173683a7661756c74206e6f7420636c6f73656420796574000000000000006044820152606401610939565b3360009081526033602052604090205480611c7f5760405162461bcd60e51b815260206004820152601a60248201527f636173683a6e6f20746f6b656e7320746f2063617368206f75740000000000006044820152606401610939565b6000611c8a60355490565b611c94478461365d565b611c9e919061363d565b9050611caa3383612d4a565b611cb43382612edb565b60405181815233907f730831a1e4aa2d187ddd8e03d7beeac760a3927da5f112d645e0f8df7494b3679060200160405180910390a25050565b3360009081526034602090815260408083206001600160a01b038616845290915281205482811015611d875760405162461bcd60e51b815260206004820152602560248201527f45524332303a2064656372656173656420616c6c6f77616e63652062656c6f7760448201527f207a65726f0000000000000000000000000000000000000000000000000000006064820152608401610939565b611d943385858403612324565b5060019392505050565b60006108e5338484612624565b6000609d54600160a01b900460ff166003811115611dd957634e487b7160e01b600052602160045260246000fd5b14611e265760405162461bcd60e51b815260206004820152601360248201527f72656465656d3a6e6f2072656465656d696e67000000000000000000000000006044820152606401610939565b611e3833611e3360355490565b612d4a565b6097546098546040516323b872dd60e01b815230600482015233602482015260448101919091526001600160a01b03909116906323b872dd90606401600060405180830381600087803b158015611e8e57600080fd5b505af1158015611ea2573d6000803e3d6000fd5b5050609d805460ff60a01b191674030000000000000000000000000000000000000000179055505060405133907fd1b5ea7fe0f1c2fa09d49c2aa9b2200664ba57a734f1d95481d95b7f99af991c90600090a2565b6000609d54600160a01b900460ff166003811115611f2557634e487b7160e01b600052602160045260246000fd5b14611f725760405162461bcd60e51b815260206004820152601760248201527f73746172743a6e6f2061756374696f6e207374617274730000000000000000006044820152606401610939565b611f7a612151565b341015611fc95760405162461bcd60e51b815260206004820152601160248201527f73746172743a746f6f206c6f77206269640000000000000000000000000000006044820152606401610939565b6035547f00000000000000000000000000000000000000000000000000000000000000006001600160a01b03166332977c736040518163ffffffff1660e01b8152600401602060405180830381600087803b15801561202757600080fd5b505af115801561203b573d6000803e3d6000fd5b505050506040513d601f19601f8201168201806040525081019061205f9190613592565b612069919061365d565b60a254612078906103e861365d565b10156120c65760405162461bcd60e51b815260206004820152601760248201527f73746172743a6e6f7420656e6f75676820766f746572730000000000000000006044820152606401610939565b609a546120d39042613625565b609955609d805434609c8190557fffffffffffffffffffffff00000000000000000000000000000000000000000090911633908117600160a01b179092556040519081527fcfb9c5312b25ec7b809d61e638df25f749eae5d5c25399e1c93d1d319bfd5821906020015b60405180910390a2565b61214f612ab3565b565b600060a2546000146121725760a254609b5461216d919061363d565b905090565b50600090565b6001609d54600160a01b900460ff1660038111156121a657634e487b7160e01b600052602160045260246000fd5b146121f35760405162461bcd60e51b815260206004820152601c60248201527f656e643a7661756c742068617320616c726561647920636c6f736564000000006044820152606401610939565b6099544210156122455760405162461bcd60e51b815260206004820152601060248201527f656e643a61756374696f6e206c697665000000000000000000000000000000006044820152606401610939565b61224d612ab3565b609754609d546098546040516323b872dd60e01b81523060048201526001600160a01b03928316602482015260448101919091529116906323b872dd90606401600060405180830381600087803b1580156122a757600080fd5b505af11580156122bb573d6000803e3d6000fd5b5050609d80547402000000000000000000000000000000000000000060ff60a01b19821617909155609c546040519081526001600160a01b0390911692507f8b01f9dd0400d6a1e84369a5fb8f6033934856ffa8ebadd707dca302ab551695915060200161213d565b6001600160a01b03831661239f5760405162461bcd60e51b8152602060048201526024808201527f45524332303a20617070726f76652066726f6d20746865207a65726f2061646460448201527f72657373000000000000000000000000000000000000000000000000000000006064820152608401610939565b6001600160a01b03821661241b5760405162461bcd60e51b815260206004820152602260248201527f45524332303a20617070726f766520746f20746865207a65726f20616464726560448201527f73730000000000000000000000000000000000000000000000000000000000006064820152608401610939565b6001600160a01b0383811660008181526034602090815260408083209487168084529482529182902085905590518481527f8c5be1e5ebec7d5bd14f71427d1e84f3dd0314c0f7b2291e5b200ac8c7c3b925910160405180910390a3505050565b73c02aaa39b223fe8d0a0e5c4f27ead9083c756cc26001600160a01b031663d0e30db0826040518263ffffffff1660e01b81526004016000604051808303818588803b1580156124cb57600080fd5b505af11580156124df573d6000803e3d6000fd5b50506040517f70a0823100000000000000000000000000000000000000000000000000000000815230600482015273c02aaa39b223fe8d0a0e5c4f27ead9083c756cc2935063a9059cbb925085915083906370a082319060240160206040518083038186803b15801561255157600080fd5b505afa158015612565573d6000803e3d6000fd5b505050506040513d601f19601f820116820180604052508101906125899190613592565b6040517fffffffff0000000000000000000000000000000000000000000000000000000060e085901b1681526001600160a01b0390921660048301526024820152604401602060405180830381600087803b1580156125e757600080fd5b505af11580156125fb573d6000803e3d6000fd5b505050506040513d601f19601f8201168201806040525081019061261f919061355a565b505050565b6001600160a01b0383166126a05760405162461bcd60e51b815260206004820152602560248201527f45524332303a207472616e736665722066726f6d20746865207a65726f20616460448201527f64726573730000000000000000000000000000000000000000000000000000006064820152608401610939565b6001600160a01b03821661271c5760405162461bcd60e51b815260206004820152602360248201527f45524332303a207472616e7366657220746f20746865207a65726f206164647260448201527f65737300000000000000000000000000000000000000000000000000000000006064820152608401610939565b612727838383612f70565b6001600160a01b038316600090815260336020526040902054818110156127b65760405162461bcd60e51b815260206004820152602660248201527f45524332303a207472616e7366657220616d6f756e742065786365656473206260448201527f616c616e636500000000000000000000000000000000000000000000000000006064820152608401610939565b6001600160a01b038085166000908152603360205260408082208585039055918516815290812080548492906127ed908490613625565b92505081905550826001600160a01b0316846001600160a01b03167fddf252ad1be2c89b69c2b068fc378daa952ba7f163c4a11628f55a4df523b3ef8460405161283991815260200190565b60405180910390a350505050565b600054610100900460ff1680612860575060005460ff16155b6128c35760405162461bcd60e51b815260206004820152602e60248201527f496e697469616c697a61626c653a20636f6e747261637420697320616c72656160448201526d191e481a5b9a5d1a585b1a5e995960921b6064820152608401610939565b600054610100900460ff161580156128e5576000805461ffff19166101011790555b6128ed613093565b6128f78383613144565b801561261f576000805461ff0019169055505050565b600054610100900460ff1680612926575060005460ff16155b6129895760405162461bcd60e51b815260206004820152602e60248201527f496e697469616c697a61626c653a20636f6e747261637420697320616c72656160448201526d191e481a5b9a5d1a585b1a5e995960921b6064820152608401610939565b600054610100900460ff161580156129ab576000805461ffff19166101011790555b6129b3613093565b80156129c5576000805461ff00191690555b50565b6001600160a01b038216612a1e5760405162461bcd60e51b815260206004820152601f60248201527f45524332303a206d696e7420746f20746865207a65726f2061646472657373006044820152606401610939565b612a2a60008383612f70565b8060356000828254612a3c9190613625565b90915550506001600160a01b03821660009081526033602052604081208054839290612a69908490613625565b90915550506040518181526001600160a01b038316906000907fddf252ad1be2c89b69c2b068fc378daa952ba7f163c4a11628f55a4df523b3ef9060200160405180910390a35050565b6002609d54600160a01b900460ff166003811115612ae157634e487b7160e01b600052602160045260246000fd5b1415612b555760405162461bcd60e51b815260206004820152602560248201527f636c61696d3a63616e6e6f7420636c61696d2061667465722061756374696f6e60448201527f20656e64730000000000000000000000000000000000000000000000000000006064820152608401610939565b60006103e8612b6360355490565b609f54612b70919061365d565b612b7a919061363d565b90506000612b8c6301e133808361363d565b9050600060a05442612b9e919061367c565b90506000612bac838361365d565b905060007f00000000000000000000000000000000000000000000000000000000000000006001600160a01b031663b3f006746040518163ffffffff1660e01b8152600401602060405180830381600087803b158015612c0b57600080fd5b505af1158015612c1f573d6000803e3d6000fd5b505050506040513d601f19601f82011682018060405250810190612c439190613371565b905060007f00000000000000000000000000000000000000000000000000000000000000006001600160a01b0316630ea90a126040518163ffffffff1660e01b8152600401602060405180830381600087803b158015612ca257600080fd5b505af1158015612cb6573d6000803e3d6000fd5b505050506040513d601f19601f82011682018060405250810190612cda9190613592565b90506103e8612ce860355490565b612cf2908361365d565b612cfc919061363d565b9550612d0c6301e133808761363d565b94506000612d1a868661365d565b4260a055609e54909150612d37906001600160a01b0316856129c8565b612d4183826129c8565b50505050505050565b6001600160a01b038216612dc65760405162461bcd60e51b815260206004820152602160248201527f45524332303a206275726e2066726f6d20746865207a65726f2061646472657360448201527f73000000000000000000000000000000000000000000000000000000000000006064820152608401610939565b612dd282600083612f70565b6001600160a01b03821660009081526033602052604090205481811015612e615760405162461bcd60e51b815260206004820152602260248201527f45524332303a206275726e20616d6f756e7420657863656564732062616c616e60448201527f63650000000000000000000000000000000000000000000000000000000000006064820152608401610939565b6001600160a01b0383166000908152603360205260408120838303905560358054849290612e9090849061367c565b90915550506040518281526000906001600160a01b038516907fddf252ad1be2c89b69c2b068fc378daa952ba7f163c4a11628f55a4df523b3ef9060200160405180910390a3505050565b6001600160a01b0382163b15612f3a5773c02aaa39b223fe8d0a0e5c4f27ead9083c756cc26001600160a01b031663d0e30db0826040518263ffffffff1660e01b81526004016000604051808303818588803b1580156124cb57600080fd5b6040516001600160a01b0383169082156108fc029083906000818181858888f1935050505015801561261f573d6000803e3d6000fd5b6001600160a01b03831615801590612fb357506000609d54600160a01b900460ff166003811115612fb157634e487b7160e01b600052602160045260246000fd5b145b1561261f576001600160a01b03808416600090815260a3602052604080822054928516825290205480821461308c5780613025578260a26000828254612ff9919061367c565b909155506130099050828461365d565b609b600082825461301a919061367c565b9091555061308c9050565b8161305d578260a2600082825461303c9190613625565b9091555061304c9050818461365d565b609b600082825461301a9190613625565b613067828461365d565b613071828561365d565b609b5461307e9190613625565b613088919061367c565b609b555b5050505050565b600054610100900460ff16806130ac575060005460ff16155b61310f5760405162461bcd60e51b815260206004820152602e60248201527f496e697469616c697a61626c653a20636f6e747261637420697320616c72656160448201526d191e481a5b9a5d1a585b1a5e995960921b6064820152608401610939565b600054610100900460ff161580156129b3576000805461ffff191661010117905580156129c5576000805461ff001916905550565b600054610100900460ff168061315d575060005460ff16155b6131c05760405162461bcd60e51b815260206004820152602e60248201527f496e697469616c697a61626c653a20636f6e747261637420697320616c72656160448201526d191e481a5b9a5d1a585b1a5e995960921b6064820152608401610939565b600054610100900460ff161580156131e2576000805461ffff19166101011790555b82516131f5906036906020860190613220565b508151613209906037906020850190613220565b50801561261f576000805461ff0019169055505050565b82805461322c90613693565b90600052602060002090601f01602090048101928261324e5760008555613294565b82601f1061326757805160ff1916838001178555613294565b82800160010185558215613294579182015b82811115613294578251825591602001919060010190613279565b506132a09291506132a4565b5090565b5b808211156132a057600081556001016132a5565b600067ffffffffffffffff808411156132d4576132d46136e4565b604051601f8501601f19908116603f011681019082821181831017156132fc576132fc6136e4565b8160405280935085815286868601111561331557600080fd5b858560208301376000602087830101525050509392505050565b600082601f83011261333f578081fd5b61334e838335602085016132b9565b9392505050565b600060208284031215613366578081fd5b813561334e816136fa565b600060208284031215613382578081fd5b815161334e816136fa565b6000806040838503121561339f578081fd5b82356133aa816136fa565b915060208301356133ba816136fa565b809150509250929050565b6000806000606084860312156133d9578081fd5b83356133e4816136fa565b925060208401356133f4816136fa565b929592945050506040919091013590565b6000806000806080858703121561341a578081fd5b8435613425816136fa565b93506020850135613435816136fa565b925060408501359150606085013567ffffffffffffffff811115613457578182fd5b8501601f81018713613467578182fd5b613476878235602084016132b9565b91505092959194509250565b600080600080600080600080610100898b03121561349e578384fd5b88356134a9816136fa565b975060208901356134b9816136fa565b965060408901359550606089013594506080890135935060a0890135925060c089013567ffffffffffffffff808211156134f1578384fd5b6134fd8c838d0161332f565b935060e08b0135915080821115613512578283fd5b5061351f8b828c0161332f565b9150509295985092959890939650565b60008060408385031215613541578182fd5b823561354c816136fa565b946020939093013593505050565b60006020828403121561356b578081fd5b8151801515811461334e578182fd5b60006020828403121561358b578081fd5b5035919050565b6000602082840312156135a3578081fd5b5051919050565b60208101600483106135cc57634e487b7160e01b600052602160045260246000fd5b91905290565b6000602080835283518082850152825b818110156135fe578581018301518582016040015282016135e2565b8181111561360f5783604083870101525b50601f01601f1916929092016040019392505050565b60008219821115613638576136386136ce565b500190565b60008261365857634e487b7160e01b81526012600452602481fd5b500490565b6000816000190483118215151615613677576136776136ce565b500290565b60008282101561368e5761368e6136ce565b500390565b600181811c908216806136a757607f821691505b602082108114156136c857634e487b7160e01b600052602260045260246000fd5b50919050565b634e487b7160e01b600052601160045260246000fd5b634e487b7160e01b600052604160045260246000fd5b6001600160a01b03811681146129c557600080fdfea164736f6c6343000804000a",
  "devdoc": {
    "kind": "dev",
    "methods": {
      "mint(string,string,address,uint256,uint256,uint256,uint256)": {
        "params": {
          "_id": "the uint256 ID of the token",
          "_listPrice": "the initial price of the NFT",
          "_name": "the desired name of the vault",
          "_symbol": "the desired sumbol of the vault",
          "_token": "the ERC721 token address fo the NFT"
        },
        "returns": {
          "_0": "the ID of the vault"
        }
      },
      "owner()": {
        "details": "Returns the address of the current owner."
      },
      "paused()": {
        "details": "Returns true if the contract is paused, and false otherwise."
      },
      "renounceOwnership()": {
        "details": "Leaves the contract without owner. It will not be possible to call `onlyOwner` functions anymore. Can only be called by the current owner. NOTE: Renouncing ownership will leave the contract without an owner, thereby removing any functionality that is only available to the owner."
      },
      "transferOwnership(address)": {
        "details": "Transfers ownership of the contract to a new account (`newOwner`). Can only be called by the current owner."
      }
    },
    "version": 1
  },
  "userdoc": {
    "kind": "user",
    "methods": {
      "logic()": {
        "notice": "the TokenVault logic contract"
      },
      "mint(string,string,address,uint256,uint256,uint256,uint256)": {
        "notice": "the function to mint a new vault"
      },
      "settings()": {
        "notice": "a settings contract controlled by governance"
      },
      "vaultCount()": {
        "notice": "the number of ERC721 vaults"
      },
      "vaults(uint256)": {
        "notice": "the mapping of vault number to vault contract"
      }
    },
    "version": 1
  },
  "storageLayout": {
    "storage": [
      {
        "astId": 1768,
        "contract": "contracts/fractional/ERC721VaultFactory.sol:ERC721VaultFactory",
        "label": "_owner",
        "offset": 0,
        "slot": "0",
        "type": "t_address"
      },
      {
        "astId": 13616,
        "contract": "contracts/fractional/ERC721VaultFactory.sol:ERC721VaultFactory",
        "label": "_paused",
        "offset": 20,
        "slot": "0",
        "type": "t_bool"
      },
      {
        "astId": 1210,
        "contract": "contracts/fractional/ERC721VaultFactory.sol:ERC721VaultFactory",
        "label": "vaultCount",
        "offset": 0,
        "slot": "1",
        "type": "t_uint256"
      },
      {
        "astId": 1215,
        "contract": "contracts/fractional/ERC721VaultFactory.sol:ERC721VaultFactory",
        "label": "vaults",
        "offset": 0,
        "slot": "2",
        "type": "t_mapping(t_uint256,t_address)"
      }
    ],
    "types": {
      "t_address": {
        "encoding": "inplace",
        "label": "address",
        "numberOfBytes": "20"
      },
      "t_bool": {
        "encoding": "inplace",
        "label": "bool",
        "numberOfBytes": "1"
      },
      "t_mapping(t_uint256,t_address)": {
        "encoding": "mapping",
        "key": "t_uint256",
        "label": "mapping(uint256 => address)",
        "numberOfBytes": "32",
        "value": "t_address"
      },
      "t_uint256": {
        "encoding": "inplace",
        "label": "uint256",
        "numberOfBytes": "32"
      }
    }
  }
}